{
	"contracts/TodoList.sol": {
		"TodoList": {
			"abi": [
				{
					"inputs": [
						{
							"internalType": "string",
							"name": "_name",
							"type": "string"
						}
					],
					"name": "addTodo",
					"outputs": [],
					"stateMutability": "nonpayable",
					"type": "function"
				},
				{
					"inputs": [
						{
							"internalType": "uint16",
							"name": "index",
							"type": "uint16"
						}
					],
					"name": "markTodo",
					"outputs": [],
					"stateMutability": "nonpayable",
					"type": "function"
				},
				{
					"inputs": [],
					"name": "showTodos",
					"outputs": [
						{
							"components": [
								{
									"internalType": "bool",
									"name": "isCompleted",
									"type": "bool"
								},
								{
									"internalType": "string",
									"name": "name",
									"type": "string"
								}
							],
							"internalType": "struct TodoList.Todo[]",
							"name": "",
							"type": "tuple[]"
						}
					],
					"stateMutability": "view",
					"type": "function"
				},
				{
					"inputs": [
						{
							"internalType": "uint256",
							"name": "",
							"type": "uint256"
						}
					],
					"name": "todoLists",
					"outputs": [
						{
							"internalType": "bool",
							"name": "isCompleted",
							"type": "bool"
						},
						{
							"internalType": "string",
							"name": "name",
							"type": "string"
						}
					],
					"stateMutability": "view",
					"type": "function"
				}
			],
			"devdoc": {
				"kind": "dev",
				"methods": {},
				"version": 1
			},
			"evm": {
				"assembly": "    /* \"contracts/TodoList.sol\":59:629  contract TodoList {... */\n  mstore(0x40, 0x80)\n  callvalue\n  dup1\n  iszero\n  tag_1\n  jumpi\n  revert(0x00, 0x00)\ntag_1:\n  pop\n  dataSize(sub_0)\n  dup1\n  dataOffset(sub_0)\n  0x00\n  codecopy\n  0x00\n  return\nstop\n\nsub_0: assembly {\n        /* \"contracts/TodoList.sol\":59:629  contract TodoList {... */\n      mstore(0x40, 0x80)\n      callvalue\n      dup1\n      iszero\n      tag_1\n      jumpi\n      revert(0x00, 0x00)\n    tag_1:\n      pop\n      jumpi(tag_2, lt(calldatasize, 0x04))\n      shr(0xe0, calldataload(0x00))\n      dup1\n      0x600060eb\n      eq\n      tag_3\n      jumpi\n      dup1\n      0x95ffebf5\n      eq\n      tag_4\n      jumpi\n      dup1\n      0xad0637e7\n      eq\n      tag_5\n      jumpi\n      dup1\n      0xc68543b5\n      eq\n      tag_6\n      jumpi\n    tag_2:\n      revert(0x00, 0x00)\n        /* \"contracts/TodoList.sol\":345:434  function showTodos() public view returns(Todo[] memory) {... */\n    tag_3:\n      tag_7\n      tag_8\n      jump\t// in\n    tag_7:\n      mload(0x40)\n      tag_9\n      swap2\n      swap1\n      tag_10\n      jump\t// in\n    tag_9:\n      mload(0x40)\n      dup1\n      swap2\n      sub\n      swap1\n      return\n        /* \"contracts/TodoList.sol\":182:337  function addTodo(string memory _name) public {... */\n    tag_4:\n      tag_11\n      0x04\n      dup1\n      calldatasize\n      sub\n      dup2\n      add\n      swap1\n      tag_12\n      swap2\n      swap1\n      tag_13\n      jump\t// in\n    tag_12:\n      tag_14\n      jump\t// in\n    tag_11:\n      stop\n        /* \"contracts/TodoList.sol\":440:621  function markTodo(uint16 index)  public {... */\n    tag_5:\n      tag_15\n      0x04\n      dup1\n      calldatasize\n      sub\n      dup2\n      add\n      swap1\n      tag_16\n      swap2\n      swap1\n      tag_17\n      jump\t// in\n    tag_16:\n      tag_18\n      jump\t// in\n    tag_15:\n      stop\n        /* \"contracts/TodoList.sol\":152:175  Todo[] public todoLists */\n    tag_6:\n      tag_19\n      0x04\n      dup1\n      calldatasize\n      sub\n      dup2\n      add\n      swap1\n      tag_20\n      swap2\n      swap1\n      tag_21\n      jump\t// in\n    tag_20:\n      tag_22\n      jump\t// in\n    tag_19:\n      mload(0x40)\n      tag_23\n      swap3\n      swap2\n      swap1\n      tag_24\n      jump\t// in\n    tag_23:\n      mload(0x40)\n      dup1\n      swap2\n      sub\n      swap1\n      return\n        /* \"contracts/TodoList.sol\":345:434  function showTodos() public view returns(Todo[] memory) {... */\n    tag_8:\n        /* \"contracts/TodoList.sol\":386:399  Todo[] memory */\n      0x60\n        /* \"contracts/TodoList.sol\":418:427  todoLists */\n      0x00\n        /* \"contracts/TodoList.sol\":411:427  return todoLists */\n      dup1\n      sload\n      dup1\n      0x20\n      mul\n      0x20\n      add\n      mload(0x40)\n      swap1\n      dup2\n      add\n      0x40\n      mstore\n      dup1\n      swap3\n      swap2\n      swap1\n      dup2\n      dup2\n      mstore\n      0x20\n      add\n      0x00\n      swap1\n    tag_26:\n      dup3\n      dup3\n      lt\n      iszero\n      tag_27\n      jumpi\n      dup4\n      dup3\n      swap1\n      0x00\n      mstore\n      keccak256(0x00, 0x20)\n      swap1\n      0x02\n      mul\n      add\n      mload(0x40)\n      dup1\n      0x40\n      add\n      0x40\n      mstore\n      swap1\n      dup2\n      0x00\n      dup3\n      add\n      0x00\n      swap1\n      sload\n      swap1\n      0x0100\n      exp\n      swap1\n      div\n      0xff\n      and\n      iszero\n      iszero\n      iszero\n      iszero\n      dup2\n      mstore\n      0x20\n      add\n      0x01\n      dup3\n      add\n      dup1\n      sload\n      tag_29\n      swap1\n      tag_30\n      jump\t// in\n    tag_29:\n      dup1\n      0x1f\n      add\n      0x20\n      dup1\n      swap2\n      div\n      mul\n      0x20\n      add\n      mload(0x40)\n      swap1\n      dup2\n      add\n      0x40\n      mstore\n      dup1\n      swap3\n      swap2\n      swap1\n      dup2\n      dup2\n      mstore\n      0x20\n      add\n      dup3\n      dup1\n      sload\n      tag_31\n      swap1\n      tag_30\n      jump\t// in\n    tag_31:\n      dup1\n      iszero\n      tag_32\n      jumpi\n      dup1\n      0x1f\n      lt\n      tag_33\n      jumpi\n      0x0100\n      dup1\n      dup4\n      sload\n      div\n      mul\n      dup4\n      mstore\n      swap2\n      0x20\n      add\n      swap2\n      jump(tag_32)\n    tag_33:\n      dup3\n      add\n      swap2\n      swap1\n      0x00\n      mstore\n      keccak256(0x00, 0x20)\n      swap1\n    tag_34:\n      dup2\n      sload\n      dup2\n      mstore\n      swap1\n      0x01\n      add\n      swap1\n      0x20\n      add\n      dup1\n      dup4\n      gt\n      tag_34\n      jumpi\n      dup3\n      swap1\n      sub\n      0x1f\n      and\n      dup3\n      add\n      swap2\n    tag_32:\n      pop\n      pop\n      pop\n      pop\n      pop\n      dup2\n      mstore\n      pop\n      pop\n      dup2\n      mstore\n      0x20\n      add\n      swap1\n      0x01\n      add\n      swap1\n      jump(tag_26)\n    tag_27:\n      pop\n      pop\n      pop\n      pop\n      swap1\n      pop\n        /* \"contracts/TodoList.sol\":345:434  function showTodos() public view returns(Todo[] memory) {... */\n      swap1\n      jump\t// out\n        /* \"contracts/TodoList.sol\":182:337  function addTodo(string memory _name) public {... */\n    tag_14:\n        /* \"contracts/TodoList.sol\":236:255  Todo memory newTodo */\n      0x00\n        /* \"contracts/TodoList.sol\":258:297  Todo({isCompleted: false, name: _name}) */\n      mload(0x40)\n      dup1\n      0x40\n      add\n      0x40\n      mstore\n      dup1\n        /* \"contracts/TodoList.sol\":277:282  false */\n      0x00\n        /* \"contracts/TodoList.sol\":258:297  Todo({isCompleted: false, name: _name}) */\n      iszero\n      iszero\n      dup2\n      mstore\n      0x20\n      add\n        /* \"contracts/TodoList.sol\":290:295  _name */\n      dup4\n        /* \"contracts/TodoList.sol\":258:297  Todo({isCompleted: false, name: _name}) */\n      dup2\n      mstore\n      pop\n        /* \"contracts/TodoList.sol\":236:297  Todo memory newTodo = Todo({isCompleted: false, name: _name}) */\n      swap1\n      pop\n        /* \"contracts/TodoList.sol\":307:316  todoLists */\n      0x00\n        /* \"contracts/TodoList.sol\":322:329  newTodo */\n      dup2\n        /* \"contracts/TodoList.sol\":307:330  todoLists.push(newTodo) */\n      swap1\n      dup1\n      0x01\n      dup2\n      sload\n      add\n      dup1\n      dup3\n      sstore\n      dup1\n      swap2\n      pop\n      pop\n      0x01\n      swap1\n      sub\n      swap1\n      0x00\n      mstore\n      keccak256(0x00, 0x20)\n      swap1\n      0x02\n      mul\n      add\n      0x00\n      swap1\n      swap2\n      swap1\n      swap2\n      swap1\n      swap2\n      pop\n      0x00\n      dup3\n      add\n      mload\n      dup2\n      0x00\n      add\n      exp(0x0100, 0x00)\n      dup2\n      sload\n      dup2\n      0xff\n      mul\n      not\n      and\n      swap1\n      dup4\n      iszero\n      iszero\n      mul\n      or\n      swap1\n      sstore\n      pop\n      0x20\n      dup3\n      add\n      mload\n      dup2\n      0x01\n      add\n      swap1\n      dup2\n      tag_37\n      swap2\n      swap1\n      tag_38\n      jump\t// in\n    tag_37:\n      pop\n      pop\n      pop\n        /* \"contracts/TodoList.sol\":227:337  {... */\n      pop\n        /* \"contracts/TodoList.sol\":182:337  function addTodo(string memory _name) public {... */\n      pop\n      jump\t// out\n        /* \"contracts/TodoList.sol\":440:621  function markTodo(uint16 index)  public {... */\n    tag_18:\n        /* \"contracts/TodoList.sol\":490:506  Todo memory todo */\n      0x00\n        /* \"contracts/TodoList.sol\":509:518  todoLists */\n      0x00\n        /* \"contracts/TodoList.sol\":519:524  index */\n      dup3\n        /* \"contracts/TodoList.sol\":509:525  todoLists[index] */\n      0xffff\n      and\n      dup2\n      sload\n      dup2\n      lt\n      tag_40\n      jumpi\n      tag_41\n      tag_42\n      jump\t// in\n    tag_41:\n    tag_40:\n      swap1\n      0x00\n      mstore\n      keccak256(0x00, 0x20)\n      swap1\n      0x02\n      mul\n      add\n        /* \"contracts/TodoList.sol\":490:525  Todo memory todo = todoLists[index] */\n      mload(0x40)\n      dup1\n      0x40\n      add\n      0x40\n      mstore\n      swap1\n      dup2\n      0x00\n      dup3\n      add\n      0x00\n      swap1\n      sload\n      swap1\n      0x0100\n      exp\n      swap1\n      div\n      0xff\n      and\n      iszero\n      iszero\n      iszero\n      iszero\n      dup2\n      mstore\n      0x20\n      add\n      0x01\n      dup3\n      add\n      dup1\n      sload\n      tag_44\n      swap1\n      tag_30\n      jump\t// in\n    tag_44:\n      dup1\n      0x1f\n      add\n      0x20\n      dup1\n      swap2\n      div\n      mul\n      0x20\n      add\n      mload(0x40)\n      swap1\n      dup2\n      add\n      0x40\n      mstore\n      dup1\n      swap3\n      swap2\n      swap1\n      dup2\n      dup2\n      mstore\n      0x20\n      add\n      dup3\n      dup1\n      sload\n      tag_45\n      swap1\n      tag_30\n      jump\t// in\n    tag_45:\n      dup1\n      iszero\n      tag_46\n      jumpi\n      dup1\n      0x1f\n      lt\n      tag_47\n      jumpi\n      0x0100\n      dup1\n      dup4\n      sload\n      div\n      mul\n      dup4\n      mstore\n      swap2\n      0x20\n      add\n      swap2\n      jump(tag_46)\n    tag_47:\n      dup3\n      add\n      swap2\n      swap1\n      0x00\n      mstore\n      keccak256(0x00, 0x20)\n      swap1\n    tag_48:\n      dup2\n      sload\n      dup2\n      mstore\n      swap1\n      0x01\n      add\n      swap1\n      0x20\n      add\n      dup1\n      dup4\n      gt\n      tag_48\n      jumpi\n      dup3\n      swap1\n      sub\n      0x1f\n      and\n      dup3\n      add\n      swap2\n    tag_46:\n      pop\n      pop\n      pop\n      pop\n      pop\n      dup2\n      mstore\n      pop\n      pop\n      swap1\n      pop\n        /* \"contracts/TodoList.sol\":564:568  todo */\n      dup1\n        /* \"contracts/TodoList.sol\":564:580  todo.isCompleted */\n      0x00\n      add\n      mload\n        /* \"contracts/TodoList.sol\":563:580  !todo.isCompleted */\n      iszero\n        /* \"contracts/TodoList.sol\":544:548  todo */\n      dup2\n        /* \"contracts/TodoList.sol\":544:560  todo.isCompleted */\n      0x00\n      add\n        /* \"contracts/TodoList.sol\":544:580  todo.isCompleted = !todo.isCompleted */\n      swap1\n      iszero\n      iszero\n      swap1\n      dup2\n      iszero\n      iszero\n      dup2\n      mstore\n      pop\n      pop\n        /* \"contracts/TodoList.sol\":610:614  todo */\n      dup1\n        /* \"contracts/TodoList.sol\":591:600  todoLists */\n      0x00\n        /* \"contracts/TodoList.sol\":601:606  index */\n      dup4\n        /* \"contracts/TodoList.sol\":591:607  todoLists[index] */\n      0xffff\n      and\n      dup2\n      sload\n      dup2\n      lt\n      tag_49\n      jumpi\n      tag_50\n      tag_42\n      jump\t// in\n    tag_50:\n    tag_49:\n      swap1\n      0x00\n      mstore\n      keccak256(0x00, 0x20)\n      swap1\n      0x02\n      mul\n      add\n        /* \"contracts/TodoList.sol\":591:614  todoLists[index] = todo */\n      0x00\n      dup3\n      add\n      mload\n      dup2\n      0x00\n      add\n      exp(0x0100, 0x00)\n      dup2\n      sload\n      dup2\n      0xff\n      mul\n      not\n      and\n      swap1\n      dup4\n      iszero\n      iszero\n      mul\n      or\n      swap1\n      sstore\n      pop\n      0x20\n      dup3\n      add\n      mload\n      dup2\n      0x01\n      add\n      swap1\n      dup2\n      tag_52\n      swap2\n      swap1\n      tag_38\n      jump\t// in\n    tag_52:\n      pop\n      swap1\n      pop\n      pop\n        /* \"contracts/TodoList.sol\":480:621  {... */\n      pop\n        /* \"contracts/TodoList.sol\":440:621  function markTodo(uint16 index)  public {... */\n      pop\n      jump\t// out\n        /* \"contracts/TodoList.sol\":152:175  Todo[] public todoLists */\n    tag_22:\n      0x00\n      dup2\n      dup2\n      sload\n      dup2\n      lt\n      tag_53\n      jumpi\n      0x00\n      dup1\n      revert\n    tag_53:\n      swap1\n      0x00\n      mstore\n      keccak256(0x00, 0x20)\n      swap1\n      0x02\n      mul\n      add\n      0x00\n      swap2\n      pop\n      swap1\n      pop\n      dup1\n      0x00\n      add\n      0x00\n      swap1\n      sload\n      swap1\n      0x0100\n      exp\n      swap1\n      div\n      0xff\n      and\n      swap1\n      dup1\n      0x01\n      add\n      dup1\n      sload\n      tag_55\n      swap1\n      tag_30\n      jump\t// in\n    tag_55:\n      dup1\n      0x1f\n      add\n      0x20\n      dup1\n      swap2\n      div\n      mul\n      0x20\n      add\n      mload(0x40)\n      swap1\n      dup2\n      add\n      0x40\n      mstore\n      dup1\n      swap3\n      swap2\n      swap1\n      dup2\n      dup2\n      mstore\n      0x20\n      add\n      dup3\n      dup1\n      sload\n      tag_56\n      swap1\n      tag_30\n      jump\t// in\n    tag_56:\n      dup1\n      iszero\n      tag_57\n      jumpi\n      dup1\n      0x1f\n      lt\n      tag_58\n      jumpi\n      0x0100\n      dup1\n      dup4\n      sload\n      div\n      mul\n      dup4\n      mstore\n      swap2\n      0x20\n      add\n      swap2\n      jump(tag_57)\n    tag_58:\n      dup3\n      add\n      swap2\n      swap1\n      0x00\n      mstore\n      keccak256(0x00, 0x20)\n      swap1\n    tag_59:\n      dup2\n      sload\n      dup2\n      mstore\n      swap1\n      0x01\n      add\n      swap1\n      0x20\n      add\n      dup1\n      dup4\n      gt\n      tag_59\n      jumpi\n      dup3\n      swap1\n      sub\n      0x1f\n      and\n      dup3\n      add\n      swap2\n    tag_57:\n      pop\n      pop\n      pop\n      pop\n      pop\n      swap1\n      pop\n      dup3\n      jump\t// out\n        /* \"#utility.yul\":7:140   */\n    tag_60:\n        /* \"#utility.yul\":93:99   */\n      0x00\n        /* \"#utility.yul\":127:132   */\n      dup2\n        /* \"#utility.yul\":121:133   */\n      mload\n        /* \"#utility.yul\":111:133   */\n      swap1\n      pop\n        /* \"#utility.yul\":7:140   */\n      swap2\n      swap1\n      pop\n      jump\t// out\n        /* \"#utility.yul\":146:349   */\n    tag_61:\n        /* \"#utility.yul\":264:275   */\n      0x00\n        /* \"#utility.yul\":298:304   */\n      dup3\n        /* \"#utility.yul\":293:296   */\n      dup3\n        /* \"#utility.yul\":286:305   */\n      mstore\n        /* \"#utility.yul\":338:342   */\n      0x20\n        /* \"#utility.yul\":333:336   */\n      dup3\n        /* \"#utility.yul\":329:343   */\n      add\n        /* \"#utility.yul\":314:343   */\n      swap1\n      pop\n        /* \"#utility.yul\":146:349   */\n      swap3\n      swap2\n      pop\n      pop\n      jump\t// out\n        /* \"#utility.yul\":355:506   */\n    tag_62:\n        /* \"#utility.yul\":441:445   */\n      0x00\n        /* \"#utility.yul\":464:467   */\n      dup2\n        /* \"#utility.yul\":456:467   */\n      swap1\n      pop\n        /* \"#utility.yul\":494:498   */\n      0x20\n        /* \"#utility.yul\":489:492   */\n      dup3\n        /* \"#utility.yul\":485:499   */\n      add\n        /* \"#utility.yul\":477:499   */\n      swap1\n      pop\n        /* \"#utility.yul\":355:506   */\n      swap2\n      swap1\n      pop\n      jump\t// out\n        /* \"#utility.yul\":512:602   */\n    tag_63:\n        /* \"#utility.yul\":546:553   */\n      0x00\n        /* \"#utility.yul\":589:594   */\n      dup2\n        /* \"#utility.yul\":582:595   */\n      iszero\n        /* \"#utility.yul\":575:596   */\n      iszero\n        /* \"#utility.yul\":564:596   */\n      swap1\n      pop\n        /* \"#utility.yul\":512:602   */\n      swap2\n      swap1\n      pop\n      jump\t// out\n        /* \"#utility.yul\":608:707   */\n    tag_64:\n        /* \"#utility.yul\":679:700   */\n      tag_117\n        /* \"#utility.yul\":694:699   */\n      dup2\n        /* \"#utility.yul\":679:700   */\n      tag_63\n      jump\t// in\n    tag_117:\n        /* \"#utility.yul\":674:677   */\n      dup3\n        /* \"#utility.yul\":667:701   */\n      mstore\n        /* \"#utility.yul\":608:707   */\n      pop\n      pop\n      jump\t// out\n        /* \"#utility.yul\":713:812   */\n    tag_65:\n        /* \"#utility.yul\":765:771   */\n      0x00\n        /* \"#utility.yul\":799:804   */\n      dup2\n        /* \"#utility.yul\":793:805   */\n      mload\n        /* \"#utility.yul\":783:805   */\n      swap1\n      pop\n        /* \"#utility.yul\":713:812   */\n      swap2\n      swap1\n      pop\n      jump\t// out\n        /* \"#utility.yul\":818:977   */\n    tag_66:\n        /* \"#utility.yul\":892:903   */\n      0x00\n        /* \"#utility.yul\":926:932   */\n      dup3\n        /* \"#utility.yul\":921:924   */\n      dup3\n        /* \"#utility.yul\":914:933   */\n      mstore\n        /* \"#utility.yul\":966:970   */\n      0x20\n        /* \"#utility.yul\":961:964   */\n      dup3\n        /* \"#utility.yul\":957:971   */\n      add\n        /* \"#utility.yul\":942:971   */\n      swap1\n      pop\n        /* \"#utility.yul\":818:977   */\n      swap3\n      swap2\n      pop\n      pop\n      jump\t// out\n        /* \"#utility.yul\":983:1122   */\n    tag_67:\n        /* \"#utility.yul\":1072:1078   */\n      dup3\n        /* \"#utility.yul\":1067:1070   */\n      dup2\n        /* \"#utility.yul\":1062:1065   */\n      dup4\n        /* \"#utility.yul\":1056:1079   */\n      mcopy\n        /* \"#utility.yul\":1113:1114   */\n      0x00\n        /* \"#utility.yul\":1104:1110   */\n      dup4\n        /* \"#utility.yul\":1099:1102   */\n      dup4\n        /* \"#utility.yul\":1095:1111   */\n      add\n        /* \"#utility.yul\":1088:1115   */\n      mstore\n        /* \"#utility.yul\":983:1122   */\n      pop\n      pop\n      pop\n      jump\t// out\n        /* \"#utility.yul\":1128:1230   */\n    tag_68:\n        /* \"#utility.yul\":1169:1175   */\n      0x00\n        /* \"#utility.yul\":1220:1222   */\n      0x1f\n        /* \"#utility.yul\":1216:1223   */\n      not\n        /* \"#utility.yul\":1211:1213   */\n      0x1f\n        /* \"#utility.yul\":1204:1209   */\n      dup4\n        /* \"#utility.yul\":1200:1214   */\n      add\n        /* \"#utility.yul\":1196:1224   */\n      and\n        /* \"#utility.yul\":1186:1224   */\n      swap1\n      pop\n        /* \"#utility.yul\":1128:1230   */\n      swap2\n      swap1\n      pop\n      jump\t// out\n        /* \"#utility.yul\":1236:1593   */\n    tag_69:\n        /* \"#utility.yul\":1314:1317   */\n      0x00\n        /* \"#utility.yul\":1342:1381   */\n      tag_123\n        /* \"#utility.yul\":1375:1380   */\n      dup3\n        /* \"#utility.yul\":1342:1381   */\n      tag_65\n      jump\t// in\n    tag_123:\n        /* \"#utility.yul\":1397:1458   */\n      tag_124\n        /* \"#utility.yul\":1451:1457   */\n      dup2\n        /* \"#utility.yul\":1446:1449   */\n      dup6\n        /* \"#utility.yul\":1397:1458   */\n      tag_66\n      jump\t// in\n    tag_124:\n        /* \"#utility.yul\":1390:1458   */\n      swap4\n      pop\n        /* \"#utility.yul\":1467:1532   */\n      tag_125\n        /* \"#utility.yul\":1525:1531   */\n      dup2\n        /* \"#utility.yul\":1520:1523   */\n      dup6\n        /* \"#utility.yul\":1513:1517   */\n      0x20\n        /* \"#utility.yul\":1506:1511   */\n      dup7\n        /* \"#utility.yul\":1502:1518   */\n      add\n        /* \"#utility.yul\":1467:1532   */\n      tag_67\n      jump\t// in\n    tag_125:\n        /* \"#utility.yul\":1557:1586   */\n      tag_126\n        /* \"#utility.yul\":1579:1585   */\n      dup2\n        /* \"#utility.yul\":1557:1586   */\n      tag_68\n      jump\t// in\n    tag_126:\n        /* \"#utility.yul\":1552:1555   */\n      dup5\n        /* \"#utility.yul\":1548:1587   */\n      add\n        /* \"#utility.yul\":1541:1587   */\n      swap2\n      pop\n        /* \"#utility.yul\":1318:1593   */\n      pop\n        /* \"#utility.yul\":1236:1593   */\n      swap3\n      swap2\n      pop\n      pop\n      jump\t// out\n        /* \"#utility.yul\":1651:2236   */\n    tag_70:\n        /* \"#utility.yul\":1748:1751   */\n      0x00\n        /* \"#utility.yul\":1784:1788   */\n      0x40\n        /* \"#utility.yul\":1779:1782   */\n      dup4\n        /* \"#utility.yul\":1775:1789   */\n      add\n        /* \"#utility.yul\":1878:1882   */\n      0x00\n        /* \"#utility.yul\":1871:1876   */\n      dup4\n        /* \"#utility.yul\":1867:1883   */\n      add\n        /* \"#utility.yul\":1861:1884   */\n      mload\n        /* \"#utility.yul\":1897:1954   */\n      tag_128\n        /* \"#utility.yul\":1948:1952   */\n      0x00\n        /* \"#utility.yul\":1943:1946   */\n      dup7\n        /* \"#utility.yul\":1939:1953   */\n      add\n        /* \"#utility.yul\":1925:1937   */\n      dup3\n        /* \"#utility.yul\":1897:1954   */\n      tag_64\n      jump\t// in\n    tag_128:\n        /* \"#utility.yul\":1799:1964   */\n      pop\n        /* \"#utility.yul\":2046:2050   */\n      0x20\n        /* \"#utility.yul\":2039:2044   */\n      dup4\n        /* \"#utility.yul\":2035:2051   */\n      add\n        /* \"#utility.yul\":2029:2052   */\n      mload\n        /* \"#utility.yul\":2099:2102   */\n      dup5\n        /* \"#utility.yul\":2093:2097   */\n      dup3\n        /* \"#utility.yul\":2089:2103   */\n      sub\n        /* \"#utility.yul\":2082:2086   */\n      0x20\n        /* \"#utility.yul\":2077:2080   */\n      dup7\n        /* \"#utility.yul\":2073:2087   */\n      add\n        /* \"#utility.yul\":2066:2104   */\n      mstore\n        /* \"#utility.yul\":2125:2198   */\n      tag_129\n        /* \"#utility.yul\":2193:2197   */\n      dup3\n        /* \"#utility.yul\":2179:2191   */\n      dup3\n        /* \"#utility.yul\":2125:2198   */\n      tag_69\n      jump\t// in\n    tag_129:\n        /* \"#utility.yul\":2117:2198   */\n      swap2\n      pop\n        /* \"#utility.yul\":1974:2209   */\n      pop\n        /* \"#utility.yul\":2226:2230   */\n      dup1\n        /* \"#utility.yul\":2219:2230   */\n      swap2\n      pop\n        /* \"#utility.yul\":1753:2236   */\n      pop\n        /* \"#utility.yul\":1651:2236   */\n      swap3\n      swap2\n      pop\n      pop\n      jump\t// out\n        /* \"#utility.yul\":2242:2474   */\n    tag_71:\n        /* \"#utility.yul\":2349:2359   */\n      0x00\n        /* \"#utility.yul\":2384:2468   */\n      tag_131\n        /* \"#utility.yul\":2464:2467   */\n      dup4\n        /* \"#utility.yul\":2456:2462   */\n      dup4\n        /* \"#utility.yul\":2384:2468   */\n      tag_70\n      jump\t// in\n    tag_131:\n        /* \"#utility.yul\":2370:2468   */\n      swap1\n      pop\n        /* \"#utility.yul\":2242:2474   */\n      swap3\n      swap2\n      pop\n      pop\n      jump\t// out\n        /* \"#utility.yul\":2480:2612   */\n    tag_72:\n        /* \"#utility.yul\":2569:2573   */\n      0x00\n        /* \"#utility.yul\":2601:2605   */\n      0x20\n        /* \"#utility.yul\":2596:2599   */\n      dup3\n        /* \"#utility.yul\":2592:2606   */\n      add\n        /* \"#utility.yul\":2584:2606   */\n      swap1\n      pop\n        /* \"#utility.yul\":2480:2612   */\n      swap2\n      swap1\n      pop\n      jump\t// out\n        /* \"#utility.yul\":2674:3737   */\n    tag_73:\n        /* \"#utility.yul\":2831:2834   */\n      0x00\n        /* \"#utility.yul\":2860:2933   */\n      tag_134\n        /* \"#utility.yul\":2927:2932   */\n      dup3\n        /* \"#utility.yul\":2860:2933   */\n      tag_60\n      jump\t// in\n    tag_134:\n        /* \"#utility.yul\":2949:3054   */\n      tag_135\n        /* \"#utility.yul\":3047:3053   */\n      dup2\n        /* \"#utility.yul\":3042:3045   */\n      dup6\n        /* \"#utility.yul\":2949:3054   */\n      tag_61\n      jump\t// in\n    tag_135:\n        /* \"#utility.yul\":2942:3054   */\n      swap4\n      pop\n        /* \"#utility.yul\":3080:3083   */\n      dup4\n        /* \"#utility.yul\":3125:3129   */\n      0x20\n        /* \"#utility.yul\":3117:3123   */\n      dup3\n        /* \"#utility.yul\":3113:3130   */\n      mul\n        /* \"#utility.yul\":3108:3111   */\n      dup6\n        /* \"#utility.yul\":3104:3131   */\n      add\n        /* \"#utility.yul\":3155:3230   */\n      tag_136\n        /* \"#utility.yul\":3224:3229   */\n      dup6\n        /* \"#utility.yul\":3155:3230   */\n      tag_62\n      jump\t// in\n    tag_136:\n        /* \"#utility.yul\":3253:3260   */\n      dup1\n        /* \"#utility.yul\":3284:3285   */\n      0x00\n        /* \"#utility.yul\":3269:3692   */\n    tag_137:\n        /* \"#utility.yul\":3294:3300   */\n      dup6\n        /* \"#utility.yul\":3291:3292   */\n      dup2\n        /* \"#utility.yul\":3288:3301   */\n      lt\n        /* \"#utility.yul\":3269:3692   */\n      iszero\n      tag_139\n      jumpi\n        /* \"#utility.yul\":3365:3374   */\n      dup5\n        /* \"#utility.yul\":3359:3363   */\n      dup5\n        /* \"#utility.yul\":3355:3375   */\n      sub\n        /* \"#utility.yul\":3350:3353   */\n      dup10\n        /* \"#utility.yul\":3343:3376   */\n      mstore\n        /* \"#utility.yul\":3416:3422   */\n      dup2\n        /* \"#utility.yul\":3410:3423   */\n      mload\n        /* \"#utility.yul\":3444:3546   */\n      tag_140\n        /* \"#utility.yul\":3541:3545   */\n      dup6\n        /* \"#utility.yul\":3526:3539   */\n      dup3\n        /* \"#utility.yul\":3444:3546   */\n      tag_71\n      jump\t// in\n    tag_140:\n        /* \"#utility.yul\":3436:3546   */\n      swap5\n      pop\n        /* \"#utility.yul\":3569:3648   */\n      tag_141\n        /* \"#utility.yul\":3641:3647   */\n      dup4\n        /* \"#utility.yul\":3569:3648   */\n      tag_72\n      jump\t// in\n    tag_141:\n        /* \"#utility.yul\":3559:3648   */\n      swap3\n      pop\n        /* \"#utility.yul\":3677:3681   */\n      0x20\n        /* \"#utility.yul\":3672:3675   */\n      dup11\n        /* \"#utility.yul\":3668:3682   */\n      add\n        /* \"#utility.yul\":3661:3682   */\n      swap10\n      pop\n        /* \"#utility.yul\":3329:3692   */\n      pop\n        /* \"#utility.yul\":3316:3317   */\n      0x01\n        /* \"#utility.yul\":3313:3314   */\n      dup2\n        /* \"#utility.yul\":3309:3318   */\n      add\n        /* \"#utility.yul\":3304:3318   */\n      swap1\n      pop\n        /* \"#utility.yul\":3269:3692   */\n      jump(tag_137)\n    tag_139:\n        /* \"#utility.yul\":3273:3287   */\n      pop\n        /* \"#utility.yul\":3708:3712   */\n      dup3\n        /* \"#utility.yul\":3701:3712   */\n      swap8\n      pop\n        /* \"#utility.yul\":3728:3731   */\n      dup8\n        /* \"#utility.yul\":3721:3731   */\n      swap6\n      pop\n        /* \"#utility.yul\":2836:3737   */\n      pop\n      pop\n      pop\n      pop\n      pop\n        /* \"#utility.yul\":2674:3737   */\n      swap3\n      swap2\n      pop\n      pop\n      jump\t// out\n        /* \"#utility.yul\":3743:4192   */\n    tag_10:\n        /* \"#utility.yul\":3924:3928   */\n      0x00\n        /* \"#utility.yul\":3962:3964   */\n      0x20\n        /* \"#utility.yul\":3951:3960   */\n      dup3\n        /* \"#utility.yul\":3947:3965   */\n      add\n        /* \"#utility.yul\":3939:3965   */\n      swap1\n      pop\n        /* \"#utility.yul\":4011:4020   */\n      dup2\n        /* \"#utility.yul\":4005:4009   */\n      dup2\n        /* \"#utility.yul\":4001:4021   */\n      sub\n        /* \"#utility.yul\":3997:3998   */\n      0x00\n        /* \"#utility.yul\":3986:3995   */\n      dup4\n        /* \"#utility.yul\":3982:3999   */\n      add\n        /* \"#utility.yul\":3975:4022   */\n      mstore\n        /* \"#utility.yul\":4039:4185   */\n      tag_143\n        /* \"#utility.yul\":4180:4184   */\n      dup2\n        /* \"#utility.yul\":4171:4177   */\n      dup5\n        /* \"#utility.yul\":4039:4185   */\n      tag_73\n      jump\t// in\n    tag_143:\n        /* \"#utility.yul\":4031:4185   */\n      swap1\n      pop\n        /* \"#utility.yul\":3743:4192   */\n      swap3\n      swap2\n      pop\n      pop\n      jump\t// out\n        /* \"#utility.yul\":4198:4273   */\n    tag_74:\n        /* \"#utility.yul\":4231:4237   */\n      0x00\n        /* \"#utility.yul\":4264:4266   */\n      0x40\n        /* \"#utility.yul\":4258:4267   */\n      mload\n        /* \"#utility.yul\":4248:4267   */\n      swap1\n      pop\n        /* \"#utility.yul\":4198:4273   */\n      swap1\n      jump\t// out\n        /* \"#utility.yul\":4279:4396   */\n    tag_75:\n        /* \"#utility.yul\":4388:4389   */\n      0x00\n        /* \"#utility.yul\":4385:4386   */\n      0x00\n        /* \"#utility.yul\":4378:4390   */\n      revert\n        /* \"#utility.yul\":4402:4519   */\n    tag_76:\n        /* \"#utility.yul\":4511:4512   */\n      0x00\n        /* \"#utility.yul\":4508:4509   */\n      0x00\n        /* \"#utility.yul\":4501:4513   */\n      revert\n        /* \"#utility.yul\":4525:4642   */\n    tag_77:\n        /* \"#utility.yul\":4634:4635   */\n      0x00\n        /* \"#utility.yul\":4631:4632   */\n      0x00\n        /* \"#utility.yul\":4624:4636   */\n      revert\n        /* \"#utility.yul\":4648:4765   */\n    tag_78:\n        /* \"#utility.yul\":4757:4758   */\n      0x00\n        /* \"#utility.yul\":4754:4755   */\n      0x00\n        /* \"#utility.yul\":4747:4759   */\n      revert\n        /* \"#utility.yul\":4771:4951   */\n    tag_79:\n        /* \"#utility.yul\":4819:4896   */\n      0x4e487b7100000000000000000000000000000000000000000000000000000000\n        /* \"#utility.yul\":4816:4817   */\n      0x00\n        /* \"#utility.yul\":4809:4897   */\n      mstore\n        /* \"#utility.yul\":4916:4920   */\n      0x41\n        /* \"#utility.yul\":4913:4914   */\n      0x04\n        /* \"#utility.yul\":4906:4921   */\n      mstore\n        /* \"#utility.yul\":4940:4944   */\n      0x24\n        /* \"#utility.yul\":4937:4938   */\n      0x00\n        /* \"#utility.yul\":4930:4945   */\n      revert\n        /* \"#utility.yul\":4957:5238   */\n    tag_80:\n        /* \"#utility.yul\":5040:5067   */\n      tag_151\n        /* \"#utility.yul\":5062:5066   */\n      dup3\n        /* \"#utility.yul\":5040:5067   */\n      tag_68\n      jump\t// in\n    tag_151:\n        /* \"#utility.yul\":5032:5038   */\n      dup2\n        /* \"#utility.yul\":5028:5068   */\n      add\n        /* \"#utility.yul\":5170:5176   */\n      dup2\n        /* \"#utility.yul\":5158:5168   */\n      dup2\n        /* \"#utility.yul\":5155:5177   */\n      lt\n        /* \"#utility.yul\":5134:5152   */\n      0xffffffffffffffff\n        /* \"#utility.yul\":5122:5132   */\n      dup3\n        /* \"#utility.yul\":5119:5153   */\n      gt\n        /* \"#utility.yul\":5116:5178   */\n      or\n        /* \"#utility.yul\":5113:5201   */\n      iszero\n      tag_152\n      jumpi\n        /* \"#utility.yul\":5181:5199   */\n      tag_153\n      tag_79\n      jump\t// in\n    tag_153:\n        /* \"#utility.yul\":5113:5201   */\n    tag_152:\n        /* \"#utility.yul\":5221:5231   */\n      dup1\n        /* \"#utility.yul\":5217:5219   */\n      0x40\n        /* \"#utility.yul\":5210:5232   */\n      mstore\n        /* \"#utility.yul\":5000:5238   */\n      pop\n        /* \"#utility.yul\":4957:5238   */\n      pop\n      pop\n      jump\t// out\n        /* \"#utility.yul\":5244:5373   */\n    tag_81:\n        /* \"#utility.yul\":5278:5284   */\n      0x00\n        /* \"#utility.yul\":5305:5325   */\n      tag_155\n      tag_74\n      jump\t// in\n    tag_155:\n        /* \"#utility.yul\":5295:5325   */\n      swap1\n      pop\n        /* \"#utility.yul\":5334:5367   */\n      tag_156\n        /* \"#utility.yul\":5362:5366   */\n      dup3\n        /* \"#utility.yul\":5354:5360   */\n      dup3\n        /* \"#utility.yul\":5334:5367   */\n      tag_80\n      jump\t// in\n    tag_156:\n        /* \"#utility.yul\":5244:5373   */\n      swap2\n      swap1\n      pop\n      jump\t// out\n        /* \"#utility.yul\":5379:5687   */\n    tag_82:\n        /* \"#utility.yul\":5441:5445   */\n      0x00\n        /* \"#utility.yul\":5531:5549   */\n      0xffffffffffffffff\n        /* \"#utility.yul\":5523:5529   */\n      dup3\n        /* \"#utility.yul\":5520:5550   */\n      gt\n        /* \"#utility.yul\":5517:5573   */\n      iszero\n      tag_158\n      jumpi\n        /* \"#utility.yul\":5553:5571   */\n      tag_159\n      tag_79\n      jump\t// in\n    tag_159:\n        /* \"#utility.yul\":5517:5573   */\n    tag_158:\n        /* \"#utility.yul\":5591:5620   */\n      tag_160\n        /* \"#utility.yul\":5613:5619   */\n      dup3\n        /* \"#utility.yul\":5591:5620   */\n      tag_68\n      jump\t// in\n    tag_160:\n        /* \"#utility.yul\":5583:5620   */\n      swap1\n      pop\n        /* \"#utility.yul\":5675:5679   */\n      0x20\n        /* \"#utility.yul\":5669:5673   */\n      dup2\n        /* \"#utility.yul\":5665:5680   */\n      add\n        /* \"#utility.yul\":5657:5680   */\n      swap1\n      pop\n        /* \"#utility.yul\":5379:5687   */\n      swap2\n      swap1\n      pop\n      jump\t// out\n        /* \"#utility.yul\":5693:5841   */\n    tag_83:\n        /* \"#utility.yul\":5791:5797   */\n      dup3\n        /* \"#utility.yul\":5786:5789   */\n      dup2\n        /* \"#utility.yul\":5781:5784   */\n      dup4\n        /* \"#utility.yul\":5768:5798   */\n      calldatacopy\n        /* \"#utility.yul\":5832:5833   */\n      0x00\n        /* \"#utility.yul\":5823:5829   */\n      dup4\n        /* \"#utility.yul\":5818:5821   */\n      dup4\n        /* \"#utility.yul\":5814:5830   */\n      add\n        /* \"#utility.yul\":5807:5834   */\n      mstore\n        /* \"#utility.yul\":5693:5841   */\n      pop\n      pop\n      pop\n      jump\t// out\n        /* \"#utility.yul\":5847:6272   */\n    tag_84:\n        /* \"#utility.yul\":5925:5930   */\n      0x00\n        /* \"#utility.yul\":5950:6016   */\n      tag_163\n        /* \"#utility.yul\":5966:6015   */\n      tag_164\n        /* \"#utility.yul\":6008:6014   */\n      dup5\n        /* \"#utility.yul\":5966:6015   */\n      tag_82\n      jump\t// in\n    tag_164:\n        /* \"#utility.yul\":5950:6016   */\n      tag_81\n      jump\t// in\n    tag_163:\n        /* \"#utility.yul\":5941:6016   */\n      swap1\n      pop\n        /* \"#utility.yul\":6039:6045   */\n      dup3\n        /* \"#utility.yul\":6032:6037   */\n      dup2\n        /* \"#utility.yul\":6025:6046   */\n      mstore\n        /* \"#utility.yul\":6077:6081   */\n      0x20\n        /* \"#utility.yul\":6070:6075   */\n      dup2\n        /* \"#utility.yul\":6066:6082   */\n      add\n        /* \"#utility.yul\":6115:6118   */\n      dup5\n        /* \"#utility.yul\":6106:6112   */\n      dup5\n        /* \"#utility.yul\":6101:6104   */\n      dup5\n        /* \"#utility.yul\":6097:6113   */\n      add\n        /* \"#utility.yul\":6094:6119   */\n      gt\n        /* \"#utility.yul\":6091:6203   */\n      iszero\n      tag_165\n      jumpi\n        /* \"#utility.yul\":6122:6201   */\n      tag_166\n      tag_78\n      jump\t// in\n    tag_166:\n        /* \"#utility.yul\":6091:6203   */\n    tag_165:\n        /* \"#utility.yul\":6212:6266   */\n      tag_167\n        /* \"#utility.yul\":6259:6265   */\n      dup5\n        /* \"#utility.yul\":6254:6257   */\n      dup3\n        /* \"#utility.yul\":6249:6252   */\n      dup6\n        /* \"#utility.yul\":6212:6266   */\n      tag_83\n      jump\t// in\n    tag_167:\n        /* \"#utility.yul\":5931:6272   */\n      pop\n        /* \"#utility.yul\":5847:6272   */\n      swap4\n      swap3\n      pop\n      pop\n      pop\n      jump\t// out\n        /* \"#utility.yul\":6292:6632   */\n    tag_85:\n        /* \"#utility.yul\":6348:6353   */\n      0x00\n        /* \"#utility.yul\":6397:6400   */\n      dup3\n        /* \"#utility.yul\":6390:6394   */\n      0x1f\n        /* \"#utility.yul\":6382:6388   */\n      dup4\n        /* \"#utility.yul\":6378:6395   */\n      add\n        /* \"#utility.yul\":6374:6401   */\n      slt\n        /* \"#utility.yul\":6364:6486   */\n      tag_169\n      jumpi\n        /* \"#utility.yul\":6405:6484   */\n      tag_170\n      tag_77\n      jump\t// in\n    tag_170:\n        /* \"#utility.yul\":6364:6486   */\n    tag_169:\n        /* \"#utility.yul\":6522:6528   */\n      dup2\n        /* \"#utility.yul\":6509:6529   */\n      calldataload\n        /* \"#utility.yul\":6547:6626   */\n      tag_171\n        /* \"#utility.yul\":6622:6625   */\n      dup5\n        /* \"#utility.yul\":6614:6620   */\n      dup3\n        /* \"#utility.yul\":6607:6611   */\n      0x20\n        /* \"#utility.yul\":6599:6605   */\n      dup7\n        /* \"#utility.yul\":6595:6612   */\n      add\n        /* \"#utility.yul\":6547:6626   */\n      tag_84\n      jump\t// in\n    tag_171:\n        /* \"#utility.yul\":6538:6626   */\n      swap2\n      pop\n        /* \"#utility.yul\":6354:6632   */\n      pop\n        /* \"#utility.yul\":6292:6632   */\n      swap3\n      swap2\n      pop\n      pop\n      jump\t// out\n        /* \"#utility.yul\":6638:7147   */\n    tag_13:\n        /* \"#utility.yul\":6707:6713   */\n      0x00\n        /* \"#utility.yul\":6756:6758   */\n      0x20\n        /* \"#utility.yul\":6744:6753   */\n      dup3\n        /* \"#utility.yul\":6735:6742   */\n      dup5\n        /* \"#utility.yul\":6731:6754   */\n      sub\n        /* \"#utility.yul\":6727:6759   */\n      slt\n        /* \"#utility.yul\":6724:6843   */\n      iszero\n      tag_173\n      jumpi\n        /* \"#utility.yul\":6762:6841   */\n      tag_174\n      tag_75\n      jump\t// in\n    tag_174:\n        /* \"#utility.yul\":6724:6843   */\n    tag_173:\n        /* \"#utility.yul\":6910:6911   */\n      0x00\n        /* \"#utility.yul\":6899:6908   */\n      dup3\n        /* \"#utility.yul\":6895:6912   */\n      add\n        /* \"#utility.yul\":6882:6913   */\n      calldataload\n        /* \"#utility.yul\":6940:6958   */\n      0xffffffffffffffff\n        /* \"#utility.yul\":6932:6938   */\n      dup2\n        /* \"#utility.yul\":6929:6959   */\n      gt\n        /* \"#utility.yul\":6926:7043   */\n      iszero\n      tag_175\n      jumpi\n        /* \"#utility.yul\":6962:7041   */\n      tag_176\n      tag_76\n      jump\t// in\n    tag_176:\n        /* \"#utility.yul\":6926:7043   */\n    tag_175:\n        /* \"#utility.yul\":7067:7130   */\n      tag_177\n        /* \"#utility.yul\":7122:7129   */\n      dup5\n        /* \"#utility.yul\":7113:7119   */\n      dup3\n        /* \"#utility.yul\":7102:7111   */\n      dup6\n        /* \"#utility.yul\":7098:7120   */\n      add\n        /* \"#utility.yul\":7067:7130   */\n      tag_85\n      jump\t// in\n    tag_177:\n        /* \"#utility.yul\":7057:7130   */\n      swap2\n      pop\n        /* \"#utility.yul\":6853:7140   */\n      pop\n        /* \"#utility.yul\":6638:7147   */\n      swap3\n      swap2\n      pop\n      pop\n      jump\t// out\n        /* \"#utility.yul\":7153:7242   */\n    tag_86:\n        /* \"#utility.yul\":7189:7196   */\n      0x00\n        /* \"#utility.yul\":7229:7235   */\n      0xffff\n        /* \"#utility.yul\":7222:7227   */\n      dup3\n        /* \"#utility.yul\":7218:7236   */\n      and\n        /* \"#utility.yul\":7207:7236   */\n      swap1\n      pop\n        /* \"#utility.yul\":7153:7242   */\n      swap2\n      swap1\n      pop\n      jump\t// out\n        /* \"#utility.yul\":7248:7368   */\n    tag_87:\n        /* \"#utility.yul\":7320:7343   */\n      tag_180\n        /* \"#utility.yul\":7337:7342   */\n      dup2\n        /* \"#utility.yul\":7320:7343   */\n      tag_86\n      jump\t// in\n    tag_180:\n        /* \"#utility.yul\":7313:7318   */\n      dup2\n        /* \"#utility.yul\":7310:7344   */\n      eq\n        /* \"#utility.yul\":7300:7362   */\n      tag_181\n      jumpi\n        /* \"#utility.yul\":7358:7359   */\n      0x00\n        /* \"#utility.yul\":7355:7356   */\n      0x00\n        /* \"#utility.yul\":7348:7360   */\n      revert\n        /* \"#utility.yul\":7300:7362   */\n    tag_181:\n        /* \"#utility.yul\":7248:7368   */\n      pop\n      jump\t// out\n        /* \"#utility.yul\":7374:7511   */\n    tag_88:\n        /* \"#utility.yul\":7419:7424   */\n      0x00\n        /* \"#utility.yul\":7457:7463   */\n      dup2\n        /* \"#utility.yul\":7444:7464   */\n      calldataload\n        /* \"#utility.yul\":7435:7464   */\n      swap1\n      pop\n        /* \"#utility.yul\":7473:7505   */\n      tag_183\n        /* \"#utility.yul\":7499:7504   */\n      dup2\n        /* \"#utility.yul\":7473:7505   */\n      tag_87\n      jump\t// in\n    tag_183:\n        /* \"#utility.yul\":7374:7511   */\n      swap3\n      swap2\n      pop\n      pop\n      jump\t// out\n        /* \"#utility.yul\":7517:7844   */\n    tag_17:\n        /* \"#utility.yul\":7575:7581   */\n      0x00\n        /* \"#utility.yul\":7624:7626   */\n      0x20\n        /* \"#utility.yul\":7612:7621   */\n      dup3\n        /* \"#utility.yul\":7603:7610   */\n      dup5\n        /* \"#utility.yul\":7599:7622   */\n      sub\n        /* \"#utility.yul\":7595:7627   */\n      slt\n        /* \"#utility.yul\":7592:7711   */\n      iszero\n      tag_185\n      jumpi\n        /* \"#utility.yul\":7630:7709   */\n      tag_186\n      tag_75\n      jump\t// in\n    tag_186:\n        /* \"#utility.yul\":7592:7711   */\n    tag_185:\n        /* \"#utility.yul\":7750:7751   */\n      0x00\n        /* \"#utility.yul\":7775:7827   */\n      tag_187\n        /* \"#utility.yul\":7819:7826   */\n      dup5\n        /* \"#utility.yul\":7810:7816   */\n      dup3\n        /* \"#utility.yul\":7799:7808   */\n      dup6\n        /* \"#utility.yul\":7795:7817   */\n      add\n        /* \"#utility.yul\":7775:7827   */\n      tag_88\n      jump\t// in\n    tag_187:\n        /* \"#utility.yul\":7765:7827   */\n      swap2\n      pop\n        /* \"#utility.yul\":7721:7837   */\n      pop\n        /* \"#utility.yul\":7517:7844   */\n      swap3\n      swap2\n      pop\n      pop\n      jump\t// out\n        /* \"#utility.yul\":7850:7927   */\n    tag_89:\n        /* \"#utility.yul\":7887:7894   */\n      0x00\n        /* \"#utility.yul\":7916:7921   */\n      dup2\n        /* \"#utility.yul\":7905:7921   */\n      swap1\n      pop\n        /* \"#utility.yul\":7850:7927   */\n      swap2\n      swap1\n      pop\n      jump\t// out\n        /* \"#utility.yul\":7933:8055   */\n    tag_90:\n        /* \"#utility.yul\":8006:8030   */\n      tag_190\n        /* \"#utility.yul\":8024:8029   */\n      dup2\n        /* \"#utility.yul\":8006:8030   */\n      tag_89\n      jump\t// in\n    tag_190:\n        /* \"#utility.yul\":7999:8004   */\n      dup2\n        /* \"#utility.yul\":7996:8031   */\n      eq\n        /* \"#utility.yul\":7986:8049   */\n      tag_191\n      jumpi\n        /* \"#utility.yul\":8045:8046   */\n      0x00\n        /* \"#utility.yul\":8042:8043   */\n      0x00\n        /* \"#utility.yul\":8035:8047   */\n      revert\n        /* \"#utility.yul\":7986:8049   */\n    tag_191:\n        /* \"#utility.yul\":7933:8055   */\n      pop\n      jump\t// out\n        /* \"#utility.yul\":8061:8200   */\n    tag_91:\n        /* \"#utility.yul\":8107:8112   */\n      0x00\n        /* \"#utility.yul\":8145:8151   */\n      dup2\n        /* \"#utility.yul\":8132:8152   */\n      calldataload\n        /* \"#utility.yul\":8123:8152   */\n      swap1\n      pop\n        /* \"#utility.yul\":8161:8194   */\n      tag_193\n        /* \"#utility.yul\":8188:8193   */\n      dup2\n        /* \"#utility.yul\":8161:8194   */\n      tag_90\n      jump\t// in\n    tag_193:\n        /* \"#utility.yul\":8061:8200   */\n      swap3\n      swap2\n      pop\n      pop\n      jump\t// out\n        /* \"#utility.yul\":8206:8535   */\n    tag_21:\n        /* \"#utility.yul\":8265:8271   */\n      0x00\n        /* \"#utility.yul\":8314:8316   */\n      0x20\n        /* \"#utility.yul\":8302:8311   */\n      dup3\n        /* \"#utility.yul\":8293:8300   */\n      dup5\n        /* \"#utility.yul\":8289:8312   */\n      sub\n        /* \"#utility.yul\":8285:8317   */\n      slt\n        /* \"#utility.yul\":8282:8401   */\n      iszero\n      tag_195\n      jumpi\n        /* \"#utility.yul\":8320:8399   */\n      tag_196\n      tag_75\n      jump\t// in\n    tag_196:\n        /* \"#utility.yul\":8282:8401   */\n    tag_195:\n        /* \"#utility.yul\":8440:8441   */\n      0x00\n        /* \"#utility.yul\":8465:8518   */\n      tag_197\n        /* \"#utility.yul\":8510:8517   */\n      dup5\n        /* \"#utility.yul\":8501:8507   */\n      dup3\n        /* \"#utility.yul\":8490:8499   */\n      dup6\n        /* \"#utility.yul\":8486:8508   */\n      add\n        /* \"#utility.yul\":8465:8518   */\n      tag_91\n      jump\t// in\n    tag_197:\n        /* \"#utility.yul\":8455:8518   */\n      swap2\n      pop\n        /* \"#utility.yul\":8411:8528   */\n      pop\n        /* \"#utility.yul\":8206:8535   */\n      swap3\n      swap2\n      pop\n      pop\n      jump\t// out\n        /* \"#utility.yul\":8541:8650   */\n    tag_92:\n        /* \"#utility.yul\":8622:8643   */\n      tag_199\n        /* \"#utility.yul\":8637:8642   */\n      dup2\n        /* \"#utility.yul\":8622:8643   */\n      tag_63\n      jump\t// in\n    tag_199:\n        /* \"#utility.yul\":8617:8620   */\n      dup3\n        /* \"#utility.yul\":8610:8644   */\n      mstore\n        /* \"#utility.yul\":8541:8650   */\n      pop\n      pop\n      jump\t// out\n        /* \"#utility.yul\":8656:8825   */\n    tag_93:\n        /* \"#utility.yul\":8740:8751   */\n      0x00\n        /* \"#utility.yul\":8774:8780   */\n      dup3\n        /* \"#utility.yul\":8769:8772   */\n      dup3\n        /* \"#utility.yul\":8762:8781   */\n      mstore\n        /* \"#utility.yul\":8814:8818   */\n      0x20\n        /* \"#utility.yul\":8809:8812   */\n      dup3\n        /* \"#utility.yul\":8805:8819   */\n      add\n        /* \"#utility.yul\":8790:8819   */\n      swap1\n      pop\n        /* \"#utility.yul\":8656:8825   */\n      swap3\n      swap2\n      pop\n      pop\n      jump\t// out\n        /* \"#utility.yul\":8831:9208   */\n    tag_94:\n        /* \"#utility.yul\":8919:8922   */\n      0x00\n        /* \"#utility.yul\":8947:8986   */\n      tag_202\n        /* \"#utility.yul\":8980:8985   */\n      dup3\n        /* \"#utility.yul\":8947:8986   */\n      tag_65\n      jump\t// in\n    tag_202:\n        /* \"#utility.yul\":9002:9073   */\n      tag_203\n        /* \"#utility.yul\":9066:9072   */\n      dup2\n        /* \"#utility.yul\":9061:9064   */\n      dup6\n        /* \"#utility.yul\":9002:9073   */\n      tag_93\n      jump\t// in\n    tag_203:\n        /* \"#utility.yul\":8995:9073   */\n      swap4\n      pop\n        /* \"#utility.yul\":9082:9147   */\n      tag_204\n        /* \"#utility.yul\":9140:9146   */\n      dup2\n        /* \"#utility.yul\":9135:9138   */\n      dup6\n        /* \"#utility.yul\":9128:9132   */\n      0x20\n        /* \"#utility.yul\":9121:9126   */\n      dup7\n        /* \"#utility.yul\":9117:9133   */\n      add\n        /* \"#utility.yul\":9082:9147   */\n      tag_67\n      jump\t// in\n    tag_204:\n        /* \"#utility.yul\":9172:9201   */\n      tag_205\n        /* \"#utility.yul\":9194:9200   */\n      dup2\n        /* \"#utility.yul\":9172:9201   */\n      tag_68\n      jump\t// in\n    tag_205:\n        /* \"#utility.yul\":9167:9170   */\n      dup5\n        /* \"#utility.yul\":9163:9202   */\n      add\n        /* \"#utility.yul\":9156:9202   */\n      swap2\n      pop\n        /* \"#utility.yul\":8923:9208   */\n      pop\n        /* \"#utility.yul\":8831:9208   */\n      swap3\n      swap2\n      pop\n      pop\n      jump\t// out\n        /* \"#utility.yul\":9214:9625   */\n    tag_24:\n        /* \"#utility.yul\":9349:9353   */\n      0x00\n        /* \"#utility.yul\":9387:9389   */\n      0x40\n        /* \"#utility.yul\":9376:9385   */\n      dup3\n        /* \"#utility.yul\":9372:9390   */\n      add\n        /* \"#utility.yul\":9364:9390   */\n      swap1\n      pop\n        /* \"#utility.yul\":9400:9465   */\n      tag_207\n        /* \"#utility.yul\":9462:9463   */\n      0x00\n        /* \"#utility.yul\":9451:9460   */\n      dup4\n        /* \"#utility.yul\":9447:9464   */\n      add\n        /* \"#utility.yul\":9438:9444   */\n      dup6\n        /* \"#utility.yul\":9400:9465   */\n      tag_92\n      jump\t// in\n    tag_207:\n        /* \"#utility.yul\":9512:9521   */\n      dup2\n        /* \"#utility.yul\":9506:9510   */\n      dup2\n        /* \"#utility.yul\":9502:9522   */\n      sub\n        /* \"#utility.yul\":9497:9499   */\n      0x20\n        /* \"#utility.yul\":9486:9495   */\n      dup4\n        /* \"#utility.yul\":9482:9500   */\n      add\n        /* \"#utility.yul\":9475:9523   */\n      mstore\n        /* \"#utility.yul\":9540:9618   */\n      tag_208\n        /* \"#utility.yul\":9613:9617   */\n      dup2\n        /* \"#utility.yul\":9604:9610   */\n      dup5\n        /* \"#utility.yul\":9540:9618   */\n      tag_94\n      jump\t// in\n    tag_208:\n        /* \"#utility.yul\":9532:9618   */\n      swap1\n      pop\n        /* \"#utility.yul\":9214:9625   */\n      swap4\n      swap3\n      pop\n      pop\n      pop\n      jump\t// out\n        /* \"#utility.yul\":9631:9811   */\n    tag_95:\n        /* \"#utility.yul\":9679:9756   */\n      0x4e487b7100000000000000000000000000000000000000000000000000000000\n        /* \"#utility.yul\":9676:9677   */\n      0x00\n        /* \"#utility.yul\":9669:9757   */\n      mstore\n        /* \"#utility.yul\":9776:9780   */\n      0x22\n        /* \"#utility.yul\":9773:9774   */\n      0x04\n        /* \"#utility.yul\":9766:9781   */\n      mstore\n        /* \"#utility.yul\":9800:9804   */\n      0x24\n        /* \"#utility.yul\":9797:9798   */\n      0x00\n        /* \"#utility.yul\":9790:9805   */\n      revert\n        /* \"#utility.yul\":9817:10137   */\n    tag_30:\n        /* \"#utility.yul\":9861:9867   */\n      0x00\n        /* \"#utility.yul\":9898:9899   */\n      0x02\n        /* \"#utility.yul\":9892:9896   */\n      dup3\n        /* \"#utility.yul\":9888:9900   */\n      div\n        /* \"#utility.yul\":9878:9900   */\n      swap1\n      pop\n        /* \"#utility.yul\":9945:9946   */\n      0x01\n        /* \"#utility.yul\":9939:9943   */\n      dup3\n        /* \"#utility.yul\":9935:9947   */\n      and\n        /* \"#utility.yul\":9966:9984   */\n      dup1\n        /* \"#utility.yul\":9956:10037   */\n      tag_211\n      jumpi\n        /* \"#utility.yul\":10022:10026   */\n      0x7f\n        /* \"#utility.yul\":10014:10020   */\n      dup3\n        /* \"#utility.yul\":10010:10027   */\n      and\n        /* \"#utility.yul\":10000:10027   */\n      swap2\n      pop\n        /* \"#utility.yul\":9956:10037   */\n    tag_211:\n        /* \"#utility.yul\":10084:10086   */\n      0x20\n        /* \"#utility.yul\":10076:10082   */\n      dup3\n        /* \"#utility.yul\":10073:10087   */\n      lt\n        /* \"#utility.yul\":10053:10071   */\n      dup2\n        /* \"#utility.yul\":10050:10088   */\n      sub\n        /* \"#utility.yul\":10047:10131   */\n      tag_212\n      jumpi\n        /* \"#utility.yul\":10103:10121   */\n      tag_213\n      tag_95\n      jump\t// in\n    tag_213:\n        /* \"#utility.yul\":10047:10131   */\n    tag_212:\n        /* \"#utility.yul\":9868:10137   */\n      pop\n        /* \"#utility.yul\":9817:10137   */\n      swap2\n      swap1\n      pop\n      jump\t// out\n        /* \"#utility.yul\":10143:10284   */\n    tag_96:\n        /* \"#utility.yul\":10192:10196   */\n      0x00\n        /* \"#utility.yul\":10215:10218   */\n      dup2\n        /* \"#utility.yul\":10207:10218   */\n      swap1\n      pop\n        /* \"#utility.yul\":10238:10241   */\n      dup2\n        /* \"#utility.yul\":10235:10236   */\n      0x00\n        /* \"#utility.yul\":10228:10242   */\n      mstore\n        /* \"#utility.yul\":10272:10276   */\n      0x20\n        /* \"#utility.yul\":10269:10270   */\n      0x00\n        /* \"#utility.yul\":10259:10277   */\n      keccak256\n        /* \"#utility.yul\":10251:10277   */\n      swap1\n      pop\n        /* \"#utility.yul\":10143:10284   */\n      swap2\n      swap1\n      pop\n      jump\t// out\n        /* \"#utility.yul\":10290:10383   */\n    tag_97:\n        /* \"#utility.yul\":10327:10333   */\n      0x00\n        /* \"#utility.yul\":10374:10376   */\n      0x20\n        /* \"#utility.yul\":10369:10371   */\n      0x1f\n        /* \"#utility.yul\":10362:10367   */\n      dup4\n        /* \"#utility.yul\":10358:10372   */\n      add\n        /* \"#utility.yul\":10354:10377   */\n      div\n        /* \"#utility.yul\":10344:10377   */\n      swap1\n      pop\n        /* \"#utility.yul\":10290:10383   */\n      swap2\n      swap1\n      pop\n      jump\t// out\n        /* \"#utility.yul\":10389:10496   */\n    tag_98:\n        /* \"#utility.yul\":10433:10441   */\n      0x00\n        /* \"#utility.yul\":10483:10488   */\n      dup3\n        /* \"#utility.yul\":10477:10481   */\n      dup3\n        /* \"#utility.yul\":10473:10489   */\n      shl\n        /* \"#utility.yul\":10452:10489   */\n      swap1\n      pop\n        /* \"#utility.yul\":10389:10496   */\n      swap3\n      swap2\n      pop\n      pop\n      jump\t// out\n        /* \"#utility.yul\":10502:10895   */\n    tag_99:\n        /* \"#utility.yul\":10571:10577   */\n      0x00\n        /* \"#utility.yul\":10621:10622   */\n      0x08\n        /* \"#utility.yul\":10609:10619   */\n      dup4\n        /* \"#utility.yul\":10605:10623   */\n      mul\n        /* \"#utility.yul\":10644:10741   */\n      tag_218\n        /* \"#utility.yul\":10674:10740   */\n      0xffffffffffffffffffffffffffffffffffffffffffffffffffffffffffffffff\n        /* \"#utility.yul\":10663:10672   */\n      dup3\n        /* \"#utility.yul\":10644:10741   */\n      tag_98\n      jump\t// in\n    tag_218:\n        /* \"#utility.yul\":10762:10801   */\n      tag_219\n        /* \"#utility.yul\":10792:10800   */\n      dup7\n        /* \"#utility.yul\":10781:10790   */\n      dup4\n        /* \"#utility.yul\":10762:10801   */\n      tag_98\n      jump\t// in\n    tag_219:\n        /* \"#utility.yul\":10750:10801   */\n      swap6\n      pop\n        /* \"#utility.yul\":10834:10838   */\n      dup1\n        /* \"#utility.yul\":10830:10839   */\n      not\n        /* \"#utility.yul\":10823:10828   */\n      dup5\n        /* \"#utility.yul\":10819:10840   */\n      and\n        /* \"#utility.yul\":10810:10840   */\n      swap4\n      pop\n        /* \"#utility.yul\":10883:10887   */\n      dup1\n        /* \"#utility.yul\":10873:10881   */\n      dup7\n        /* \"#utility.yul\":10869:10888   */\n      and\n        /* \"#utility.yul\":10862:10867   */\n      dup5\n        /* \"#utility.yul\":10859:10889   */\n      or\n        /* \"#utility.yul\":10849:10889   */\n      swap3\n      pop\n        /* \"#utility.yul\":10578:10895   */\n      pop\n      pop\n        /* \"#utility.yul\":10502:10895   */\n      swap4\n      swap3\n      pop\n      pop\n      pop\n      jump\t// out\n        /* \"#utility.yul\":10901:10961   */\n    tag_100:\n        /* \"#utility.yul\":10929:10932   */\n      0x00\n        /* \"#utility.yul\":10950:10955   */\n      dup2\n        /* \"#utility.yul\":10943:10955   */\n      swap1\n      pop\n        /* \"#utility.yul\":10901:10961   */\n      swap2\n      swap1\n      pop\n      jump\t// out\n        /* \"#utility.yul\":10967:11109   */\n    tag_101:\n        /* \"#utility.yul\":11017:11026   */\n      0x00\n        /* \"#utility.yul\":11050:11103   */\n      tag_222\n        /* \"#utility.yul\":11068:11102   */\n      tag_223\n        /* \"#utility.yul\":11077:11101   */\n      tag_224\n        /* \"#utility.yul\":11095:11100   */\n      dup5\n        /* \"#utility.yul\":11077:11101   */\n      tag_89\n      jump\t// in\n    tag_224:\n        /* \"#utility.yul\":11068:11102   */\n      tag_100\n      jump\t// in\n    tag_223:\n        /* \"#utility.yul\":11050:11103   */\n      tag_89\n      jump\t// in\n    tag_222:\n        /* \"#utility.yul\":11037:11103   */\n      swap1\n      pop\n        /* \"#utility.yul\":10967:11109   */\n      swap2\n      swap1\n      pop\n      jump\t// out\n        /* \"#utility.yul\":11115:11190   */\n    tag_102:\n        /* \"#utility.yul\":11158:11161   */\n      0x00\n        /* \"#utility.yul\":11179:11184   */\n      dup2\n        /* \"#utility.yul\":11172:11184   */\n      swap1\n      pop\n        /* \"#utility.yul\":11115:11190   */\n      swap2\n      swap1\n      pop\n      jump\t// out\n        /* \"#utility.yul\":11196:11465   */\n    tag_103:\n        /* \"#utility.yul\":11306:11345   */\n      tag_227\n        /* \"#utility.yul\":11337:11344   */\n      dup4\n        /* \"#utility.yul\":11306:11345   */\n      tag_101\n      jump\t// in\n    tag_227:\n        /* \"#utility.yul\":11367:11458   */\n      tag_228\n        /* \"#utility.yul\":11416:11457   */\n      tag_229\n        /* \"#utility.yul\":11440:11456   */\n      dup3\n        /* \"#utility.yul\":11416:11457   */\n      tag_102\n      jump\t// in\n    tag_229:\n        /* \"#utility.yul\":11408:11414   */\n      dup5\n        /* \"#utility.yul\":11401:11405   */\n      dup5\n        /* \"#utility.yul\":11395:11406   */\n      sload\n        /* \"#utility.yul\":11367:11458   */\n      tag_99\n      jump\t// in\n    tag_228:\n        /* \"#utility.yul\":11361:11365   */\n      dup3\n        /* \"#utility.yul\":11354:11459   */\n      sstore\n        /* \"#utility.yul\":11272:11465   */\n      pop\n        /* \"#utility.yul\":11196:11465   */\n      pop\n      pop\n      pop\n      jump\t// out\n        /* \"#utility.yul\":11471:11544   */\n    tag_104:\n        /* \"#utility.yul\":11516:11519   */\n      0x00\n        /* \"#utility.yul\":11537:11538   */\n      0x00\n        /* \"#utility.yul\":11530:11538   */\n      swap1\n      pop\n        /* \"#utility.yul\":11471:11544   */\n      swap1\n      jump\t// out\n        /* \"#utility.yul\":11550:11739   */\n    tag_105:\n        /* \"#utility.yul\":11627:11659   */\n      tag_232\n      tag_104\n      jump\t// in\n    tag_232:\n        /* \"#utility.yul\":11668:11733   */\n      tag_233\n        /* \"#utility.yul\":11726:11732   */\n      dup2\n        /* \"#utility.yul\":11718:11724   */\n      dup5\n        /* \"#utility.yul\":11712:11716   */\n      dup5\n        /* \"#utility.yul\":11668:11733   */\n      tag_103\n      jump\t// in\n    tag_233:\n        /* \"#utility.yul\":11603:11739   */\n      pop\n        /* \"#utility.yul\":11550:11739   */\n      pop\n      pop\n      jump\t// out\n        /* \"#utility.yul\":11745:11931   */\n    tag_106:\n        /* \"#utility.yul\":11805:11925   */\n    tag_235:\n        /* \"#utility.yul\":11822:11825   */\n      dup2\n        /* \"#utility.yul\":11815:11820   */\n      dup2\n        /* \"#utility.yul\":11812:11826   */\n      lt\n        /* \"#utility.yul\":11805:11925   */\n      iszero\n      tag_237\n      jumpi\n        /* \"#utility.yul\":11876:11915   */\n      tag_238\n        /* \"#utility.yul\":11913:11914   */\n      0x00\n        /* \"#utility.yul\":11906:11911   */\n      dup3\n        /* \"#utility.yul\":11876:11915   */\n      tag_105\n      jump\t// in\n    tag_238:\n        /* \"#utility.yul\":11849:11850   */\n      0x01\n        /* \"#utility.yul\":11842:11847   */\n      dup2\n        /* \"#utility.yul\":11838:11851   */\n      add\n        /* \"#utility.yul\":11829:11851   */\n      swap1\n      pop\n        /* \"#utility.yul\":11805:11925   */\n      jump(tag_235)\n    tag_237:\n        /* \"#utility.yul\":11745:11931   */\n      pop\n      pop\n      jump\t// out\n        /* \"#utility.yul\":11937:12480   */\n    tag_107:\n        /* \"#utility.yul\":12038:12040   */\n      0x1f\n        /* \"#utility.yul\":12033:12036   */\n      dup3\n        /* \"#utility.yul\":12030:12041   */\n      gt\n        /* \"#utility.yul\":12027:12473   */\n      iszero\n      tag_240\n      jumpi\n        /* \"#utility.yul\":12072:12110   */\n      tag_241\n        /* \"#utility.yul\":12104:12109   */\n      dup2\n        /* \"#utility.yul\":12072:12110   */\n      tag_96\n      jump\t// in\n    tag_241:\n        /* \"#utility.yul\":12156:12185   */\n      tag_242\n        /* \"#utility.yul\":12174:12184   */\n      dup5\n        /* \"#utility.yul\":12156:12185   */\n      tag_97\n      jump\t// in\n    tag_242:\n        /* \"#utility.yul\":12146:12154   */\n      dup2\n        /* \"#utility.yul\":12142:12186   */\n      add\n        /* \"#utility.yul\":12339:12341   */\n      0x20\n        /* \"#utility.yul\":12327:12337   */\n      dup6\n        /* \"#utility.yul\":12324:12342   */\n      lt\n        /* \"#utility.yul\":12321:12370   */\n      iszero\n      tag_243\n      jumpi\n        /* \"#utility.yul\":12360:12368   */\n      dup2\n        /* \"#utility.yul\":12345:12368   */\n      swap1\n      pop\n        /* \"#utility.yul\":12321:12370   */\n    tag_243:\n        /* \"#utility.yul\":12383:12463   */\n      tag_244\n        /* \"#utility.yul\":12439:12461   */\n      tag_245\n        /* \"#utility.yul\":12457:12460   */\n      dup6\n        /* \"#utility.yul\":12439:12461   */\n      tag_97\n      jump\t// in\n    tag_245:\n        /* \"#utility.yul\":12429:12437   */\n      dup4\n        /* \"#utility.yul\":12425:12462   */\n      add\n        /* \"#utility.yul\":12412:12423   */\n      dup3\n        /* \"#utility.yul\":12383:12463   */\n      tag_106\n      jump\t// in\n    tag_244:\n        /* \"#utility.yul\":12042:12473   */\n      pop\n      pop\n        /* \"#utility.yul\":12027:12473   */\n    tag_240:\n        /* \"#utility.yul\":11937:12480   */\n      pop\n      pop\n      pop\n      jump\t// out\n        /* \"#utility.yul\":12486:12603   */\n    tag_108:\n        /* \"#utility.yul\":12540:12548   */\n      0x00\n        /* \"#utility.yul\":12590:12595   */\n      dup3\n        /* \"#utility.yul\":12584:12588   */\n      dup3\n        /* \"#utility.yul\":12580:12596   */\n      shr\n        /* \"#utility.yul\":12559:12596   */\n      swap1\n      pop\n        /* \"#utility.yul\":12486:12603   */\n      swap3\n      swap2\n      pop\n      pop\n      jump\t// out\n        /* \"#utility.yul\":12609:12778   */\n    tag_109:\n        /* \"#utility.yul\":12653:12659   */\n      0x00\n        /* \"#utility.yul\":12686:12737   */\n      tag_248\n        /* \"#utility.yul\":12734:12735   */\n      0x00\n        /* \"#utility.yul\":12730:12736   */\n      not\n        /* \"#utility.yul\":12722:12727   */\n      dup5\n        /* \"#utility.yul\":12719:12720   */\n      0x08\n        /* \"#utility.yul\":12715:12728   */\n      mul\n        /* \"#utility.yul\":12686:12737   */\n      tag_108\n      jump\t// in\n    tag_248:\n        /* \"#utility.yul\":12682:12738   */\n      not\n        /* \"#utility.yul\":12767:12771   */\n      dup1\n        /* \"#utility.yul\":12761:12765   */\n      dup4\n        /* \"#utility.yul\":12757:12772   */\n      and\n        /* \"#utility.yul\":12747:12772   */\n      swap2\n      pop\n        /* \"#utility.yul\":12660:12778   */\n      pop\n        /* \"#utility.yul\":12609:12778   */\n      swap3\n      swap2\n      pop\n      pop\n      jump\t// out\n        /* \"#utility.yul\":12783:13078   */\n    tag_110:\n        /* \"#utility.yul\":12859:12863   */\n      0x00\n        /* \"#utility.yul\":13005:13034   */\n      tag_250\n        /* \"#utility.yul\":13030:13033   */\n      dup4\n        /* \"#utility.yul\":13024:13028   */\n      dup4\n        /* \"#utility.yul\":13005:13034   */\n      tag_109\n      jump\t// in\n    tag_250:\n        /* \"#utility.yul\":12997:13034   */\n      swap2\n      pop\n        /* \"#utility.yul\":13067:13070   */\n      dup3\n        /* \"#utility.yul\":13064:13065   */\n      0x02\n        /* \"#utility.yul\":13060:13071   */\n      mul\n        /* \"#utility.yul\":13054:13058   */\n      dup3\n        /* \"#utility.yul\":13051:13072   */\n      or\n        /* \"#utility.yul\":13043:13072   */\n      swap1\n      pop\n        /* \"#utility.yul\":12783:13078   */\n      swap3\n      swap2\n      pop\n      pop\n      jump\t// out\n        /* \"#utility.yul\":13083:14478   */\n    tag_38:\n        /* \"#utility.yul\":13200:13237   */\n      tag_252\n        /* \"#utility.yul\":13233:13236   */\n      dup3\n        /* \"#utility.yul\":13200:13237   */\n      tag_65\n      jump\t// in\n    tag_252:\n        /* \"#utility.yul\":13302:13320   */\n      0xffffffffffffffff\n        /* \"#utility.yul\":13294:13300   */\n      dup2\n        /* \"#utility.yul\":13291:13321   */\n      gt\n        /* \"#utility.yul\":13288:13344   */\n      iszero\n      tag_253\n      jumpi\n        /* \"#utility.yul\":13324:13342   */\n      tag_254\n      tag_79\n      jump\t// in\n    tag_254:\n        /* \"#utility.yul\":13288:13344   */\n    tag_253:\n        /* \"#utility.yul\":13368:13406   */\n      tag_255\n        /* \"#utility.yul\":13400:13404   */\n      dup3\n        /* \"#utility.yul\":13394:13405   */\n      sload\n        /* \"#utility.yul\":13368:13406   */\n      tag_30\n      jump\t// in\n    tag_255:\n        /* \"#utility.yul\":13453:13520   */\n      tag_256\n        /* \"#utility.yul\":13513:13519   */\n      dup3\n        /* \"#utility.yul\":13505:13511   */\n      dup3\n        /* \"#utility.yul\":13499:13503   */\n      dup6\n        /* \"#utility.yul\":13453:13520   */\n      tag_107\n      jump\t// in\n    tag_256:\n        /* \"#utility.yul\":13547:13548   */\n      0x00\n        /* \"#utility.yul\":13571:13575   */\n      0x20\n        /* \"#utility.yul\":13558:13575   */\n      swap1\n      pop\n        /* \"#utility.yul\":13603:13605   */\n      0x1f\n        /* \"#utility.yul\":13595:13601   */\n      dup4\n        /* \"#utility.yul\":13592:13606   */\n      gt\n        /* \"#utility.yul\":13620:13621   */\n      0x01\n        /* \"#utility.yul\":13615:14233   */\n      dup2\n      eq\n      tag_258\n      jumpi\n        /* \"#utility.yul\":14277:14278   */\n      0x00\n        /* \"#utility.yul\":14294:14300   */\n      dup5\n        /* \"#utility.yul\":14291:14368   */\n      iszero\n      tag_259\n      jumpi\n        /* \"#utility.yul\":14343:14352   */\n      dup3\n        /* \"#utility.yul\":14338:14341   */\n      dup8\n        /* \"#utility.yul\":14334:14353   */\n      add\n        /* \"#utility.yul\":14328:14354   */\n      mload\n        /* \"#utility.yul\":14319:14354   */\n      swap1\n      pop\n        /* \"#utility.yul\":14291:14368   */\n    tag_259:\n        /* \"#utility.yul\":14394:14461   */\n      tag_260\n        /* \"#utility.yul\":14454:14460   */\n      dup6\n        /* \"#utility.yul\":14447:14452   */\n      dup3\n        /* \"#utility.yul\":14394:14461   */\n      tag_110\n      jump\t// in\n    tag_260:\n        /* \"#utility.yul\":14388:14392   */\n      dup7\n        /* \"#utility.yul\":14381:14462   */\n      sstore\n        /* \"#utility.yul\":14250:14472   */\n      pop\n        /* \"#utility.yul\":13585:14472   */\n      jump(tag_257)\n        /* \"#utility.yul\":13615:14233   */\n    tag_258:\n        /* \"#utility.yul\":13667:13671   */\n      0x1f\n        /* \"#utility.yul\":13663:13672   */\n      not\n        /* \"#utility.yul\":13655:13661   */\n      dup5\n        /* \"#utility.yul\":13651:13673   */\n      and\n        /* \"#utility.yul\":13701:13738   */\n      tag_261\n        /* \"#utility.yul\":13733:13737   */\n      dup7\n        /* \"#utility.yul\":13701:13738   */\n      tag_96\n      jump\t// in\n    tag_261:\n        /* \"#utility.yul\":13760:13761   */\n      0x00\n        /* \"#utility.yul\":13774:13982   */\n    tag_262:\n        /* \"#utility.yul\":13788:13795   */\n      dup3\n        /* \"#utility.yul\":13785:13786   */\n      dup2\n        /* \"#utility.yul\":13782:13796   */\n      lt\n        /* \"#utility.yul\":13774:13982   */\n      iszero\n      tag_264\n      jumpi\n        /* \"#utility.yul\":13867:13876   */\n      dup5\n        /* \"#utility.yul\":13862:13865   */\n      dup10\n        /* \"#utility.yul\":13858:13877   */\n      add\n        /* \"#utility.yul\":13852:13878   */\n      mload\n        /* \"#utility.yul\":13844:13850   */\n      dup3\n        /* \"#utility.yul\":13837:13879   */\n      sstore\n        /* \"#utility.yul\":13918:13919   */\n      0x01\n        /* \"#utility.yul\":13910:13916   */\n      dup3\n        /* \"#utility.yul\":13906:13920   */\n      add\n        /* \"#utility.yul\":13896:13920   */\n      swap2\n      pop\n        /* \"#utility.yul\":13965:13967   */\n      0x20\n        /* \"#utility.yul\":13954:13963   */\n      dup6\n        /* \"#utility.yul\":13950:13968   */\n      add\n        /* \"#utility.yul\":13937:13968   */\n      swap5\n      pop\n        /* \"#utility.yul\":13811:13815   */\n      0x20\n        /* \"#utility.yul\":13808:13809   */\n      dup2\n        /* \"#utility.yul\":13804:13816   */\n      add\n        /* \"#utility.yul\":13799:13816   */\n      swap1\n      pop\n        /* \"#utility.yul\":13774:13982   */\n      jump(tag_262)\n    tag_264:\n        /* \"#utility.yul\":14010:14016   */\n      dup7\n        /* \"#utility.yul\":14001:14008   */\n      dup4\n        /* \"#utility.yul\":13998:14017   */\n      lt\n        /* \"#utility.yul\":13995:14174   */\n      iszero\n      tag_265\n      jumpi\n        /* \"#utility.yul\":14068:14077   */\n      dup5\n        /* \"#utility.yul\":14063:14066   */\n      dup10\n        /* \"#utility.yul\":14059:14078   */\n      add\n        /* \"#utility.yul\":14053:14079   */\n      mload\n        /* \"#utility.yul\":14111:14159   */\n      tag_266\n        /* \"#utility.yul\":14153:14157   */\n      0x1f\n        /* \"#utility.yul\":14145:14151   */\n      dup10\n        /* \"#utility.yul\":14141:14158   */\n      and\n        /* \"#utility.yul\":14130:14139   */\n      dup3\n        /* \"#utility.yul\":14111:14159   */\n      tag_109\n      jump\t// in\n    tag_266:\n        /* \"#utility.yul\":14103:14109   */\n      dup4\n        /* \"#utility.yul\":14096:14160   */\n      sstore\n        /* \"#utility.yul\":14018:14174   */\n      pop\n        /* \"#utility.yul\":13995:14174   */\n    tag_265:\n        /* \"#utility.yul\":14220:14221   */\n      0x01\n        /* \"#utility.yul\":14216:14217   */\n      0x02\n        /* \"#utility.yul\":14208:14214   */\n      dup9\n        /* \"#utility.yul\":14204:14218   */\n      mul\n        /* \"#utility.yul\":14200:14222   */\n      add\n        /* \"#utility.yul\":14194:14198   */\n      dup9\n        /* \"#utility.yul\":14187:14223   */\n      sstore\n        /* \"#utility.yul\":13622:14233   */\n      pop\n      pop\n      pop\n        /* \"#utility.yul\":13585:14472   */\n    tag_257:\n      pop\n        /* \"#utility.yul\":13175:14478   */\n      pop\n      pop\n      pop\n        /* \"#utility.yul\":13083:14478   */\n      pop\n      pop\n      jump\t// out\n        /* \"#utility.yul\":14484:14664   */\n    tag_42:\n        /* \"#utility.yul\":14532:14609   */\n      0x4e487b7100000000000000000000000000000000000000000000000000000000\n        /* \"#utility.yul\":14529:14530   */\n      0x00\n        /* \"#utility.yul\":14522:14610   */\n      mstore\n        /* \"#utility.yul\":14629:14633   */\n      0x32\n        /* \"#utility.yul\":14626:14627   */\n      0x04\n        /* \"#utility.yul\":14619:14634   */\n      mstore\n        /* \"#utility.yul\":14653:14657   */\n      0x24\n        /* \"#utility.yul\":14650:14651   */\n      0x00\n        /* \"#utility.yul\":14643:14658   */\n      revert\n\n    auxdata: 0xa2646970667358221220c2508b60232a7a03a8c2cf0bb93e88a0449a820493b6d0e501c8a9f69645d88764736f6c634300081c0033\n}\n",
				"bytecode": {
					"linkReferences": {},
					"object": "6080604052348015600e575f5ffd5b50610bf68061001c5f395ff3fe608060405234801561000f575f5ffd5b506004361061004a575f3560e01c8063600060eb1461004e57806395ffebf51461006c578063ad0637e714610088578063c68543b5146100a4575b5f5ffd5b6100566100d5565b60405161006391906105de565b60405180910390f35b6100866004803603810190610081919061073b565b6101d9565b005b6100a2600480360381019061009d91906107b9565b610254565b005b6100be60048036038101906100b99190610817565b61039f565b6040516100cc929190610899565b60405180910390f35b60605f805480602002602001604051908101604052809291908181526020015f905b828210156101d0578382905f5260205f2090600202016040518060400160405290815f82015f9054906101000a900460ff16151515158152602001600182018054610141906108f4565b80601f016020809104026020016040519081016040528092919081815260200182805461016d906108f4565b80156101b85780601f1061018f576101008083540402835291602001916101b8565b820191905f5260205f20905b81548152906001019060200180831161019b57829003601f168201915b505050505081525050815260200190600101906100f7565b50505050905090565b5f60405180604001604052805f151581526020018381525090505f81908060018154018082558091505060019003905f5260205f2090600202015f909190919091505f820151815f015f6101000a81548160ff021916908315150217905550602082015181600101908161024d9190610ac4565b5050505050565b5f5f8261ffff168154811061026c5761026b610b93565b5b905f5260205f2090600202016040518060400160405290815f82015f9054906101000a900460ff161515151581526020016001820180546102ac906108f4565b80601f01602080910402602001604051908101604052809291908181526020018280546102d8906108f4565b80156103235780601f106102fa57610100808354040283529160200191610323565b820191905f5260205f20905b81548152906001019060200180831161030657829003601f168201915b5050505050815250509050805f015115815f019015159081151581525050805f8361ffff168154811061035957610358610b93565b5b905f5260205f2090600202015f820151815f015f6101000a81548160ff02191690831515021790555060208201518160010190816103979190610ac4565b509050505050565b5f81815481106103ad575f80fd5b905f5260205f2090600202015f91509050805f015f9054906101000a900460ff16908060010180546103de906108f4565b80601f016020809104026020016040519081016040528092919081815260200182805461040a906108f4565b80156104555780601f1061042c57610100808354040283529160200191610455565b820191905f5260205f20905b81548152906001019060200180831161043857829003601f168201915b5050505050905082565b5f81519050919050565b5f82825260208201905092915050565b5f819050602082019050919050565b5f8115159050919050565b61049c81610488565b82525050565b5f81519050919050565b5f82825260208201905092915050565b8281835e5f83830152505050565b5f601f19601f8301169050919050565b5f6104e4826104a2565b6104ee81856104ac565b93506104fe8185602086016104bc565b610507816104ca565b840191505092915050565b5f604083015f8301516105275f860182610493565b506020830151848203602086015261053f82826104da565b9150508091505092915050565b5f6105578383610512565b905092915050565b5f602082019050919050565b5f6105758261045f565b61057f8185610469565b93508360208202850161059185610479565b805f5b858110156105cc57848403895281516105ad858261054c565b94506105b88361055f565b925060208a01995050600181019050610594565b50829750879550505050505092915050565b5f6020820190508181035f8301526105f6818461056b565b905092915050565b5f604051905090565b5f5ffd5b5f5ffd5b5f5ffd5b5f5ffd5b7f4e487b71000000000000000000000000000000000000000000000000000000005f52604160045260245ffd5b61064d826104ca565b810181811067ffffffffffffffff8211171561066c5761066b610617565b5b80604052505050565b5f61067e6105fe565b905061068a8282610644565b919050565b5f67ffffffffffffffff8211156106a9576106a8610617565b5b6106b2826104ca565b9050602081019050919050565b828183375f83830152505050565b5f6106df6106da8461068f565b610675565b9050828152602081018484840111156106fb576106fa610613565b5b6107068482856106bf565b509392505050565b5f82601f8301126107225761072161060f565b5b81356107328482602086016106cd565b91505092915050565b5f602082840312156107505761074f610607565b5b5f82013567ffffffffffffffff81111561076d5761076c61060b565b5b6107798482850161070e565b91505092915050565b5f61ffff82169050919050565b61079881610782565b81146107a2575f5ffd5b50565b5f813590506107b38161078f565b92915050565b5f602082840312156107ce576107cd610607565b5b5f6107db848285016107a5565b91505092915050565b5f819050919050565b6107f6816107e4565b8114610800575f5ffd5b50565b5f81359050610811816107ed565b92915050565b5f6020828403121561082c5761082b610607565b5b5f61083984828501610803565b91505092915050565b61084b81610488565b82525050565b5f82825260208201905092915050565b5f61086b826104a2565b6108758185610851565b93506108858185602086016104bc565b61088e816104ca565b840191505092915050565b5f6040820190506108ac5f830185610842565b81810360208301526108be8184610861565b90509392505050565b7f4e487b71000000000000000000000000000000000000000000000000000000005f52602260045260245ffd5b5f600282049050600182168061090b57607f821691505b60208210810361091e5761091d6108c7565b5b50919050565b5f819050815f5260205f209050919050565b5f6020601f8301049050919050565b5f82821b905092915050565b5f600883026109807fffffffffffffffffffffffffffffffffffffffffffffffffffffffffffffffff82610945565b61098a8683610945565b95508019841693508086168417925050509392505050565b5f819050919050565b5f6109c56109c06109bb846107e4565b6109a2565b6107e4565b9050919050565b5f819050919050565b6109de836109ab565b6109f26109ea826109cc565b848454610951565b825550505050565b5f5f905090565b610a096109fa565b610a148184846109d5565b505050565b5b81811015610a3757610a2c5f82610a01565b600181019050610a1a565b5050565b601f821115610a7c57610a4d81610924565b610a5684610936565b81016020851015610a65578190505b610a79610a7185610936565b830182610a19565b50505b505050565b5f82821c905092915050565b5f610a9c5f1984600802610a81565b1980831691505092915050565b5f610ab48383610a8d565b9150826002028217905092915050565b610acd826104a2565b67ffffffffffffffff811115610ae657610ae5610617565b5b610af082546108f4565b610afb828285610a3b565b5f60209050601f831160018114610b2c575f8415610b1a578287015190505b610b248582610aa9565b865550610b8b565b601f198416610b3a86610924565b5f5b82811015610b6157848901518255600182019150602085019450602081019050610b3c565b86831015610b7e5784890151610b7a601f891682610a8d565b8355505b6001600288020188555050505b505050505050565b7f4e487b71000000000000000000000000000000000000000000000000000000005f52603260045260245ffdfea2646970667358221220c2508b60232a7a03a8c2cf0bb93e88a0449a820493b6d0e501c8a9f69645d88764736f6c634300081c0033",
					"opcodes": "PUSH1 0x80 PUSH1 0x40 MSTORE CALLVALUE DUP1 ISZERO PUSH1 0xE JUMPI PUSH0 PUSH0 REVERT JUMPDEST POP PUSH2 0xBF6 DUP1 PUSH2 0x1C PUSH0 CODECOPY PUSH0 RETURN INVALID PUSH1 0x80 PUSH1 0x40 MSTORE CALLVALUE DUP1 ISZERO PUSH2 0xF JUMPI PUSH0 PUSH0 REVERT JUMPDEST POP PUSH1 0x4 CALLDATASIZE LT PUSH2 0x4A JUMPI PUSH0 CALLDATALOAD PUSH1 0xE0 SHR DUP1 PUSH4 0x600060EB EQ PUSH2 0x4E JUMPI DUP1 PUSH4 0x95FFEBF5 EQ PUSH2 0x6C JUMPI DUP1 PUSH4 0xAD0637E7 EQ PUSH2 0x88 JUMPI DUP1 PUSH4 0xC68543B5 EQ PUSH2 0xA4 JUMPI JUMPDEST PUSH0 PUSH0 REVERT JUMPDEST PUSH2 0x56 PUSH2 0xD5 JUMP JUMPDEST PUSH1 0x40 MLOAD PUSH2 0x63 SWAP2 SWAP1 PUSH2 0x5DE JUMP JUMPDEST PUSH1 0x40 MLOAD DUP1 SWAP2 SUB SWAP1 RETURN JUMPDEST PUSH2 0x86 PUSH1 0x4 DUP1 CALLDATASIZE SUB DUP2 ADD SWAP1 PUSH2 0x81 SWAP2 SWAP1 PUSH2 0x73B JUMP JUMPDEST PUSH2 0x1D9 JUMP JUMPDEST STOP JUMPDEST PUSH2 0xA2 PUSH1 0x4 DUP1 CALLDATASIZE SUB DUP2 ADD SWAP1 PUSH2 0x9D SWAP2 SWAP1 PUSH2 0x7B9 JUMP JUMPDEST PUSH2 0x254 JUMP JUMPDEST STOP JUMPDEST PUSH2 0xBE PUSH1 0x4 DUP1 CALLDATASIZE SUB DUP2 ADD SWAP1 PUSH2 0xB9 SWAP2 SWAP1 PUSH2 0x817 JUMP JUMPDEST PUSH2 0x39F JUMP JUMPDEST PUSH1 0x40 MLOAD PUSH2 0xCC SWAP3 SWAP2 SWAP1 PUSH2 0x899 JUMP JUMPDEST PUSH1 0x40 MLOAD DUP1 SWAP2 SUB SWAP1 RETURN JUMPDEST PUSH1 0x60 PUSH0 DUP1 SLOAD DUP1 PUSH1 0x20 MUL PUSH1 0x20 ADD PUSH1 0x40 MLOAD SWAP1 DUP2 ADD PUSH1 0x40 MSTORE DUP1 SWAP3 SWAP2 SWAP1 DUP2 DUP2 MSTORE PUSH1 0x20 ADD PUSH0 SWAP1 JUMPDEST DUP3 DUP3 LT ISZERO PUSH2 0x1D0 JUMPI DUP4 DUP3 SWAP1 PUSH0 MSTORE PUSH1 0x20 PUSH0 KECCAK256 SWAP1 PUSH1 0x2 MUL ADD PUSH1 0x40 MLOAD DUP1 PUSH1 0x40 ADD PUSH1 0x40 MSTORE SWAP1 DUP2 PUSH0 DUP3 ADD PUSH0 SWAP1 SLOAD SWAP1 PUSH2 0x100 EXP SWAP1 DIV PUSH1 0xFF AND ISZERO ISZERO ISZERO ISZERO DUP2 MSTORE PUSH1 0x20 ADD PUSH1 0x1 DUP3 ADD DUP1 SLOAD PUSH2 0x141 SWAP1 PUSH2 0x8F4 JUMP JUMPDEST DUP1 PUSH1 0x1F ADD PUSH1 0x20 DUP1 SWAP2 DIV MUL PUSH1 0x20 ADD PUSH1 0x40 MLOAD SWAP1 DUP2 ADD PUSH1 0x40 MSTORE DUP1 SWAP3 SWAP2 SWAP1 DUP2 DUP2 MSTORE PUSH1 0x20 ADD DUP3 DUP1 SLOAD PUSH2 0x16D SWAP1 PUSH2 0x8F4 JUMP JUMPDEST DUP1 ISZERO PUSH2 0x1B8 JUMPI DUP1 PUSH1 0x1F LT PUSH2 0x18F JUMPI PUSH2 0x100 DUP1 DUP4 SLOAD DIV MUL DUP4 MSTORE SWAP2 PUSH1 0x20 ADD SWAP2 PUSH2 0x1B8 JUMP JUMPDEST DUP3 ADD SWAP2 SWAP1 PUSH0 MSTORE PUSH1 0x20 PUSH0 KECCAK256 SWAP1 JUMPDEST DUP2 SLOAD DUP2 MSTORE SWAP1 PUSH1 0x1 ADD SWAP1 PUSH1 0x20 ADD DUP1 DUP4 GT PUSH2 0x19B JUMPI DUP3 SWAP1 SUB PUSH1 0x1F AND DUP3 ADD SWAP2 JUMPDEST POP POP POP POP POP DUP2 MSTORE POP POP DUP2 MSTORE PUSH1 0x20 ADD SWAP1 PUSH1 0x1 ADD SWAP1 PUSH2 0xF7 JUMP JUMPDEST POP POP POP POP SWAP1 POP SWAP1 JUMP JUMPDEST PUSH0 PUSH1 0x40 MLOAD DUP1 PUSH1 0x40 ADD PUSH1 0x40 MSTORE DUP1 PUSH0 ISZERO ISZERO DUP2 MSTORE PUSH1 0x20 ADD DUP4 DUP2 MSTORE POP SWAP1 POP PUSH0 DUP2 SWAP1 DUP1 PUSH1 0x1 DUP2 SLOAD ADD DUP1 DUP3 SSTORE DUP1 SWAP2 POP POP PUSH1 0x1 SWAP1 SUB SWAP1 PUSH0 MSTORE PUSH1 0x20 PUSH0 KECCAK256 SWAP1 PUSH1 0x2 MUL ADD PUSH0 SWAP1 SWAP2 SWAP1 SWAP2 SWAP1 SWAP2 POP PUSH0 DUP3 ADD MLOAD DUP2 PUSH0 ADD PUSH0 PUSH2 0x100 EXP DUP2 SLOAD DUP2 PUSH1 0xFF MUL NOT AND SWAP1 DUP4 ISZERO ISZERO MUL OR SWAP1 SSTORE POP PUSH1 0x20 DUP3 ADD MLOAD DUP2 PUSH1 0x1 ADD SWAP1 DUP2 PUSH2 0x24D SWAP2 SWAP1 PUSH2 0xAC4 JUMP JUMPDEST POP POP POP POP POP JUMP JUMPDEST PUSH0 PUSH0 DUP3 PUSH2 0xFFFF AND DUP2 SLOAD DUP2 LT PUSH2 0x26C JUMPI PUSH2 0x26B PUSH2 0xB93 JUMP JUMPDEST JUMPDEST SWAP1 PUSH0 MSTORE PUSH1 0x20 PUSH0 KECCAK256 SWAP1 PUSH1 0x2 MUL ADD PUSH1 0x40 MLOAD DUP1 PUSH1 0x40 ADD PUSH1 0x40 MSTORE SWAP1 DUP2 PUSH0 DUP3 ADD PUSH0 SWAP1 SLOAD SWAP1 PUSH2 0x100 EXP SWAP1 DIV PUSH1 0xFF AND ISZERO ISZERO ISZERO ISZERO DUP2 MSTORE PUSH1 0x20 ADD PUSH1 0x1 DUP3 ADD DUP1 SLOAD PUSH2 0x2AC SWAP1 PUSH2 0x8F4 JUMP JUMPDEST DUP1 PUSH1 0x1F ADD PUSH1 0x20 DUP1 SWAP2 DIV MUL PUSH1 0x20 ADD PUSH1 0x40 MLOAD SWAP1 DUP2 ADD PUSH1 0x40 MSTORE DUP1 SWAP3 SWAP2 SWAP1 DUP2 DUP2 MSTORE PUSH1 0x20 ADD DUP3 DUP1 SLOAD PUSH2 0x2D8 SWAP1 PUSH2 0x8F4 JUMP JUMPDEST DUP1 ISZERO PUSH2 0x323 JUMPI DUP1 PUSH1 0x1F LT PUSH2 0x2FA JUMPI PUSH2 0x100 DUP1 DUP4 SLOAD DIV MUL DUP4 MSTORE SWAP2 PUSH1 0x20 ADD SWAP2 PUSH2 0x323 JUMP JUMPDEST DUP3 ADD SWAP2 SWAP1 PUSH0 MSTORE PUSH1 0x20 PUSH0 KECCAK256 SWAP1 JUMPDEST DUP2 SLOAD DUP2 MSTORE SWAP1 PUSH1 0x1 ADD SWAP1 PUSH1 0x20 ADD DUP1 DUP4 GT PUSH2 0x306 JUMPI DUP3 SWAP1 SUB PUSH1 0x1F AND DUP3 ADD SWAP2 JUMPDEST POP POP POP POP POP DUP2 MSTORE POP POP SWAP1 POP DUP1 PUSH0 ADD MLOAD ISZERO DUP2 PUSH0 ADD SWAP1 ISZERO ISZERO SWAP1 DUP2 ISZERO ISZERO DUP2 MSTORE POP POP DUP1 PUSH0 DUP4 PUSH2 0xFFFF AND DUP2 SLOAD DUP2 LT PUSH2 0x359 JUMPI PUSH2 0x358 PUSH2 0xB93 JUMP JUMPDEST JUMPDEST SWAP1 PUSH0 MSTORE PUSH1 0x20 PUSH0 KECCAK256 SWAP1 PUSH1 0x2 MUL ADD PUSH0 DUP3 ADD MLOAD DUP2 PUSH0 ADD PUSH0 PUSH2 0x100 EXP DUP2 SLOAD DUP2 PUSH1 0xFF MUL NOT AND SWAP1 DUP4 ISZERO ISZERO MUL OR SWAP1 SSTORE POP PUSH1 0x20 DUP3 ADD MLOAD DUP2 PUSH1 0x1 ADD SWAP1 DUP2 PUSH2 0x397 SWAP2 SWAP1 PUSH2 0xAC4 JUMP JUMPDEST POP SWAP1 POP POP POP POP JUMP JUMPDEST PUSH0 DUP2 DUP2 SLOAD DUP2 LT PUSH2 0x3AD JUMPI PUSH0 DUP1 REVERT JUMPDEST SWAP1 PUSH0 MSTORE PUSH1 0x20 PUSH0 KECCAK256 SWAP1 PUSH1 0x2 MUL ADD PUSH0 SWAP2 POP SWAP1 POP DUP1 PUSH0 ADD PUSH0 SWAP1 SLOAD SWAP1 PUSH2 0x100 EXP SWAP1 DIV PUSH1 0xFF AND SWAP1 DUP1 PUSH1 0x1 ADD DUP1 SLOAD PUSH2 0x3DE SWAP1 PUSH2 0x8F4 JUMP JUMPDEST DUP1 PUSH1 0x1F ADD PUSH1 0x20 DUP1 SWAP2 DIV MUL PUSH1 0x20 ADD PUSH1 0x40 MLOAD SWAP1 DUP2 ADD PUSH1 0x40 MSTORE DUP1 SWAP3 SWAP2 SWAP1 DUP2 DUP2 MSTORE PUSH1 0x20 ADD DUP3 DUP1 SLOAD PUSH2 0x40A SWAP1 PUSH2 0x8F4 JUMP JUMPDEST DUP1 ISZERO PUSH2 0x455 JUMPI DUP1 PUSH1 0x1F LT PUSH2 0x42C JUMPI PUSH2 0x100 DUP1 DUP4 SLOAD DIV MUL DUP4 MSTORE SWAP2 PUSH1 0x20 ADD SWAP2 PUSH2 0x455 JUMP JUMPDEST DUP3 ADD SWAP2 SWAP1 PUSH0 MSTORE PUSH1 0x20 PUSH0 KECCAK256 SWAP1 JUMPDEST DUP2 SLOAD DUP2 MSTORE SWAP1 PUSH1 0x1 ADD SWAP1 PUSH1 0x20 ADD DUP1 DUP4 GT PUSH2 0x438 JUMPI DUP3 SWAP1 SUB PUSH1 0x1F AND DUP3 ADD SWAP2 JUMPDEST POP POP POP POP POP SWAP1 POP DUP3 JUMP JUMPDEST PUSH0 DUP2 MLOAD SWAP1 POP SWAP2 SWAP1 POP JUMP JUMPDEST PUSH0 DUP3 DUP3 MSTORE PUSH1 0x20 DUP3 ADD SWAP1 POP SWAP3 SWAP2 POP POP JUMP JUMPDEST PUSH0 DUP2 SWAP1 POP PUSH1 0x20 DUP3 ADD SWAP1 POP SWAP2 SWAP1 POP JUMP JUMPDEST PUSH0 DUP2 ISZERO ISZERO SWAP1 POP SWAP2 SWAP1 POP JUMP JUMPDEST PUSH2 0x49C DUP2 PUSH2 0x488 JUMP JUMPDEST DUP3 MSTORE POP POP JUMP JUMPDEST PUSH0 DUP2 MLOAD SWAP1 POP SWAP2 SWAP1 POP JUMP JUMPDEST PUSH0 DUP3 DUP3 MSTORE PUSH1 0x20 DUP3 ADD SWAP1 POP SWAP3 SWAP2 POP POP JUMP JUMPDEST DUP3 DUP2 DUP4 MCOPY PUSH0 DUP4 DUP4 ADD MSTORE POP POP POP JUMP JUMPDEST PUSH0 PUSH1 0x1F NOT PUSH1 0x1F DUP4 ADD AND SWAP1 POP SWAP2 SWAP1 POP JUMP JUMPDEST PUSH0 PUSH2 0x4E4 DUP3 PUSH2 0x4A2 JUMP JUMPDEST PUSH2 0x4EE DUP2 DUP6 PUSH2 0x4AC JUMP JUMPDEST SWAP4 POP PUSH2 0x4FE DUP2 DUP6 PUSH1 0x20 DUP7 ADD PUSH2 0x4BC JUMP JUMPDEST PUSH2 0x507 DUP2 PUSH2 0x4CA JUMP JUMPDEST DUP5 ADD SWAP2 POP POP SWAP3 SWAP2 POP POP JUMP JUMPDEST PUSH0 PUSH1 0x40 DUP4 ADD PUSH0 DUP4 ADD MLOAD PUSH2 0x527 PUSH0 DUP7 ADD DUP3 PUSH2 0x493 JUMP JUMPDEST POP PUSH1 0x20 DUP4 ADD MLOAD DUP5 DUP3 SUB PUSH1 0x20 DUP7 ADD MSTORE PUSH2 0x53F DUP3 DUP3 PUSH2 0x4DA JUMP JUMPDEST SWAP2 POP POP DUP1 SWAP2 POP POP SWAP3 SWAP2 POP POP JUMP JUMPDEST PUSH0 PUSH2 0x557 DUP4 DUP4 PUSH2 0x512 JUMP JUMPDEST SWAP1 POP SWAP3 SWAP2 POP POP JUMP JUMPDEST PUSH0 PUSH1 0x20 DUP3 ADD SWAP1 POP SWAP2 SWAP1 POP JUMP JUMPDEST PUSH0 PUSH2 0x575 DUP3 PUSH2 0x45F JUMP JUMPDEST PUSH2 0x57F DUP2 DUP6 PUSH2 0x469 JUMP JUMPDEST SWAP4 POP DUP4 PUSH1 0x20 DUP3 MUL DUP6 ADD PUSH2 0x591 DUP6 PUSH2 0x479 JUMP JUMPDEST DUP1 PUSH0 JUMPDEST DUP6 DUP2 LT ISZERO PUSH2 0x5CC JUMPI DUP5 DUP5 SUB DUP10 MSTORE DUP2 MLOAD PUSH2 0x5AD DUP6 DUP3 PUSH2 0x54C JUMP JUMPDEST SWAP5 POP PUSH2 0x5B8 DUP4 PUSH2 0x55F JUMP JUMPDEST SWAP3 POP PUSH1 0x20 DUP11 ADD SWAP10 POP POP PUSH1 0x1 DUP2 ADD SWAP1 POP PUSH2 0x594 JUMP JUMPDEST POP DUP3 SWAP8 POP DUP8 SWAP6 POP POP POP POP POP POP SWAP3 SWAP2 POP POP JUMP JUMPDEST PUSH0 PUSH1 0x20 DUP3 ADD SWAP1 POP DUP2 DUP2 SUB PUSH0 DUP4 ADD MSTORE PUSH2 0x5F6 DUP2 DUP5 PUSH2 0x56B JUMP JUMPDEST SWAP1 POP SWAP3 SWAP2 POP POP JUMP JUMPDEST PUSH0 PUSH1 0x40 MLOAD SWAP1 POP SWAP1 JUMP JUMPDEST PUSH0 PUSH0 REVERT JUMPDEST PUSH0 PUSH0 REVERT JUMPDEST PUSH0 PUSH0 REVERT JUMPDEST PUSH0 PUSH0 REVERT JUMPDEST PUSH32 0x4E487B7100000000000000000000000000000000000000000000000000000000 PUSH0 MSTORE PUSH1 0x41 PUSH1 0x4 MSTORE PUSH1 0x24 PUSH0 REVERT JUMPDEST PUSH2 0x64D DUP3 PUSH2 0x4CA JUMP JUMPDEST DUP2 ADD DUP2 DUP2 LT PUSH8 0xFFFFFFFFFFFFFFFF DUP3 GT OR ISZERO PUSH2 0x66C JUMPI PUSH2 0x66B PUSH2 0x617 JUMP JUMPDEST JUMPDEST DUP1 PUSH1 0x40 MSTORE POP POP POP JUMP JUMPDEST PUSH0 PUSH2 0x67E PUSH2 0x5FE JUMP JUMPDEST SWAP1 POP PUSH2 0x68A DUP3 DUP3 PUSH2 0x644 JUMP JUMPDEST SWAP2 SWAP1 POP JUMP JUMPDEST PUSH0 PUSH8 0xFFFFFFFFFFFFFFFF DUP3 GT ISZERO PUSH2 0x6A9 JUMPI PUSH2 0x6A8 PUSH2 0x617 JUMP JUMPDEST JUMPDEST PUSH2 0x6B2 DUP3 PUSH2 0x4CA JUMP JUMPDEST SWAP1 POP PUSH1 0x20 DUP2 ADD SWAP1 POP SWAP2 SWAP1 POP JUMP JUMPDEST DUP3 DUP2 DUP4 CALLDATACOPY PUSH0 DUP4 DUP4 ADD MSTORE POP POP POP JUMP JUMPDEST PUSH0 PUSH2 0x6DF PUSH2 0x6DA DUP5 PUSH2 0x68F JUMP JUMPDEST PUSH2 0x675 JUMP JUMPDEST SWAP1 POP DUP3 DUP2 MSTORE PUSH1 0x20 DUP2 ADD DUP5 DUP5 DUP5 ADD GT ISZERO PUSH2 0x6FB JUMPI PUSH2 0x6FA PUSH2 0x613 JUMP JUMPDEST JUMPDEST PUSH2 0x706 DUP5 DUP3 DUP6 PUSH2 0x6BF JUMP JUMPDEST POP SWAP4 SWAP3 POP POP POP JUMP JUMPDEST PUSH0 DUP3 PUSH1 0x1F DUP4 ADD SLT PUSH2 0x722 JUMPI PUSH2 0x721 PUSH2 0x60F JUMP JUMPDEST JUMPDEST DUP2 CALLDATALOAD PUSH2 0x732 DUP5 DUP3 PUSH1 0x20 DUP7 ADD PUSH2 0x6CD JUMP JUMPDEST SWAP2 POP POP SWAP3 SWAP2 POP POP JUMP JUMPDEST PUSH0 PUSH1 0x20 DUP3 DUP5 SUB SLT ISZERO PUSH2 0x750 JUMPI PUSH2 0x74F PUSH2 0x607 JUMP JUMPDEST JUMPDEST PUSH0 DUP3 ADD CALLDATALOAD PUSH8 0xFFFFFFFFFFFFFFFF DUP2 GT ISZERO PUSH2 0x76D JUMPI PUSH2 0x76C PUSH2 0x60B JUMP JUMPDEST JUMPDEST PUSH2 0x779 DUP5 DUP3 DUP6 ADD PUSH2 0x70E JUMP JUMPDEST SWAP2 POP POP SWAP3 SWAP2 POP POP JUMP JUMPDEST PUSH0 PUSH2 0xFFFF DUP3 AND SWAP1 POP SWAP2 SWAP1 POP JUMP JUMPDEST PUSH2 0x798 DUP2 PUSH2 0x782 JUMP JUMPDEST DUP2 EQ PUSH2 0x7A2 JUMPI PUSH0 PUSH0 REVERT JUMPDEST POP JUMP JUMPDEST PUSH0 DUP2 CALLDATALOAD SWAP1 POP PUSH2 0x7B3 DUP2 PUSH2 0x78F JUMP JUMPDEST SWAP3 SWAP2 POP POP JUMP JUMPDEST PUSH0 PUSH1 0x20 DUP3 DUP5 SUB SLT ISZERO PUSH2 0x7CE JUMPI PUSH2 0x7CD PUSH2 0x607 JUMP JUMPDEST JUMPDEST PUSH0 PUSH2 0x7DB DUP5 DUP3 DUP6 ADD PUSH2 0x7A5 JUMP JUMPDEST SWAP2 POP POP SWAP3 SWAP2 POP POP JUMP JUMPDEST PUSH0 DUP2 SWAP1 POP SWAP2 SWAP1 POP JUMP JUMPDEST PUSH2 0x7F6 DUP2 PUSH2 0x7E4 JUMP JUMPDEST DUP2 EQ PUSH2 0x800 JUMPI PUSH0 PUSH0 REVERT JUMPDEST POP JUMP JUMPDEST PUSH0 DUP2 CALLDATALOAD SWAP1 POP PUSH2 0x811 DUP2 PUSH2 0x7ED JUMP JUMPDEST SWAP3 SWAP2 POP POP JUMP JUMPDEST PUSH0 PUSH1 0x20 DUP3 DUP5 SUB SLT ISZERO PUSH2 0x82C JUMPI PUSH2 0x82B PUSH2 0x607 JUMP JUMPDEST JUMPDEST PUSH0 PUSH2 0x839 DUP5 DUP3 DUP6 ADD PUSH2 0x803 JUMP JUMPDEST SWAP2 POP POP SWAP3 SWAP2 POP POP JUMP JUMPDEST PUSH2 0x84B DUP2 PUSH2 0x488 JUMP JUMPDEST DUP3 MSTORE POP POP JUMP JUMPDEST PUSH0 DUP3 DUP3 MSTORE PUSH1 0x20 DUP3 ADD SWAP1 POP SWAP3 SWAP2 POP POP JUMP JUMPDEST PUSH0 PUSH2 0x86B DUP3 PUSH2 0x4A2 JUMP JUMPDEST PUSH2 0x875 DUP2 DUP6 PUSH2 0x851 JUMP JUMPDEST SWAP4 POP PUSH2 0x885 DUP2 DUP6 PUSH1 0x20 DUP7 ADD PUSH2 0x4BC JUMP JUMPDEST PUSH2 0x88E DUP2 PUSH2 0x4CA JUMP JUMPDEST DUP5 ADD SWAP2 POP POP SWAP3 SWAP2 POP POP JUMP JUMPDEST PUSH0 PUSH1 0x40 DUP3 ADD SWAP1 POP PUSH2 0x8AC PUSH0 DUP4 ADD DUP6 PUSH2 0x842 JUMP JUMPDEST DUP2 DUP2 SUB PUSH1 0x20 DUP4 ADD MSTORE PUSH2 0x8BE DUP2 DUP5 PUSH2 0x861 JUMP JUMPDEST SWAP1 POP SWAP4 SWAP3 POP POP POP JUMP JUMPDEST PUSH32 0x4E487B7100000000000000000000000000000000000000000000000000000000 PUSH0 MSTORE PUSH1 0x22 PUSH1 0x4 MSTORE PUSH1 0x24 PUSH0 REVERT JUMPDEST PUSH0 PUSH1 0x2 DUP3 DIV SWAP1 POP PUSH1 0x1 DUP3 AND DUP1 PUSH2 0x90B JUMPI PUSH1 0x7F DUP3 AND SWAP2 POP JUMPDEST PUSH1 0x20 DUP3 LT DUP2 SUB PUSH2 0x91E JUMPI PUSH2 0x91D PUSH2 0x8C7 JUMP JUMPDEST JUMPDEST POP SWAP2 SWAP1 POP JUMP JUMPDEST PUSH0 DUP2 SWAP1 POP DUP2 PUSH0 MSTORE PUSH1 0x20 PUSH0 KECCAK256 SWAP1 POP SWAP2 SWAP1 POP JUMP JUMPDEST PUSH0 PUSH1 0x20 PUSH1 0x1F DUP4 ADD DIV SWAP1 POP SWAP2 SWAP1 POP JUMP JUMPDEST PUSH0 DUP3 DUP3 SHL SWAP1 POP SWAP3 SWAP2 POP POP JUMP JUMPDEST PUSH0 PUSH1 0x8 DUP4 MUL PUSH2 0x980 PUSH32 0xFFFFFFFFFFFFFFFFFFFFFFFFFFFFFFFFFFFFFFFFFFFFFFFFFFFFFFFFFFFFFFFF DUP3 PUSH2 0x945 JUMP JUMPDEST PUSH2 0x98A DUP7 DUP4 PUSH2 0x945 JUMP JUMPDEST SWAP6 POP DUP1 NOT DUP5 AND SWAP4 POP DUP1 DUP7 AND DUP5 OR SWAP3 POP POP POP SWAP4 SWAP3 POP POP POP JUMP JUMPDEST PUSH0 DUP2 SWAP1 POP SWAP2 SWAP1 POP JUMP JUMPDEST PUSH0 PUSH2 0x9C5 PUSH2 0x9C0 PUSH2 0x9BB DUP5 PUSH2 0x7E4 JUMP JUMPDEST PUSH2 0x9A2 JUMP JUMPDEST PUSH2 0x7E4 JUMP JUMPDEST SWAP1 POP SWAP2 SWAP1 POP JUMP JUMPDEST PUSH0 DUP2 SWAP1 POP SWAP2 SWAP1 POP JUMP JUMPDEST PUSH2 0x9DE DUP4 PUSH2 0x9AB JUMP JUMPDEST PUSH2 0x9F2 PUSH2 0x9EA DUP3 PUSH2 0x9CC JUMP JUMPDEST DUP5 DUP5 SLOAD PUSH2 0x951 JUMP JUMPDEST DUP3 SSTORE POP POP POP POP JUMP JUMPDEST PUSH0 PUSH0 SWAP1 POP SWAP1 JUMP JUMPDEST PUSH2 0xA09 PUSH2 0x9FA JUMP JUMPDEST PUSH2 0xA14 DUP2 DUP5 DUP5 PUSH2 0x9D5 JUMP JUMPDEST POP POP POP JUMP JUMPDEST JUMPDEST DUP2 DUP2 LT ISZERO PUSH2 0xA37 JUMPI PUSH2 0xA2C PUSH0 DUP3 PUSH2 0xA01 JUMP JUMPDEST PUSH1 0x1 DUP2 ADD SWAP1 POP PUSH2 0xA1A JUMP JUMPDEST POP POP JUMP JUMPDEST PUSH1 0x1F DUP3 GT ISZERO PUSH2 0xA7C JUMPI PUSH2 0xA4D DUP2 PUSH2 0x924 JUMP JUMPDEST PUSH2 0xA56 DUP5 PUSH2 0x936 JUMP JUMPDEST DUP2 ADD PUSH1 0x20 DUP6 LT ISZERO PUSH2 0xA65 JUMPI DUP2 SWAP1 POP JUMPDEST PUSH2 0xA79 PUSH2 0xA71 DUP6 PUSH2 0x936 JUMP JUMPDEST DUP4 ADD DUP3 PUSH2 0xA19 JUMP JUMPDEST POP POP JUMPDEST POP POP POP JUMP JUMPDEST PUSH0 DUP3 DUP3 SHR SWAP1 POP SWAP3 SWAP2 POP POP JUMP JUMPDEST PUSH0 PUSH2 0xA9C PUSH0 NOT DUP5 PUSH1 0x8 MUL PUSH2 0xA81 JUMP JUMPDEST NOT DUP1 DUP4 AND SWAP2 POP POP SWAP3 SWAP2 POP POP JUMP JUMPDEST PUSH0 PUSH2 0xAB4 DUP4 DUP4 PUSH2 0xA8D JUMP JUMPDEST SWAP2 POP DUP3 PUSH1 0x2 MUL DUP3 OR SWAP1 POP SWAP3 SWAP2 POP POP JUMP JUMPDEST PUSH2 0xACD DUP3 PUSH2 0x4A2 JUMP JUMPDEST PUSH8 0xFFFFFFFFFFFFFFFF DUP2 GT ISZERO PUSH2 0xAE6 JUMPI PUSH2 0xAE5 PUSH2 0x617 JUMP JUMPDEST JUMPDEST PUSH2 0xAF0 DUP3 SLOAD PUSH2 0x8F4 JUMP JUMPDEST PUSH2 0xAFB DUP3 DUP3 DUP6 PUSH2 0xA3B JUMP JUMPDEST PUSH0 PUSH1 0x20 SWAP1 POP PUSH1 0x1F DUP4 GT PUSH1 0x1 DUP2 EQ PUSH2 0xB2C JUMPI PUSH0 DUP5 ISZERO PUSH2 0xB1A JUMPI DUP3 DUP8 ADD MLOAD SWAP1 POP JUMPDEST PUSH2 0xB24 DUP6 DUP3 PUSH2 0xAA9 JUMP JUMPDEST DUP7 SSTORE POP PUSH2 0xB8B JUMP JUMPDEST PUSH1 0x1F NOT DUP5 AND PUSH2 0xB3A DUP7 PUSH2 0x924 JUMP JUMPDEST PUSH0 JUMPDEST DUP3 DUP2 LT ISZERO PUSH2 0xB61 JUMPI DUP5 DUP10 ADD MLOAD DUP3 SSTORE PUSH1 0x1 DUP3 ADD SWAP2 POP PUSH1 0x20 DUP6 ADD SWAP5 POP PUSH1 0x20 DUP2 ADD SWAP1 POP PUSH2 0xB3C JUMP JUMPDEST DUP7 DUP4 LT ISZERO PUSH2 0xB7E JUMPI DUP5 DUP10 ADD MLOAD PUSH2 0xB7A PUSH1 0x1F DUP10 AND DUP3 PUSH2 0xA8D JUMP JUMPDEST DUP4 SSTORE POP JUMPDEST PUSH1 0x1 PUSH1 0x2 DUP9 MUL ADD DUP9 SSTORE POP POP POP JUMPDEST POP POP POP POP POP POP JUMP JUMPDEST PUSH32 0x4E487B7100000000000000000000000000000000000000000000000000000000 PUSH0 MSTORE PUSH1 0x32 PUSH1 0x4 MSTORE PUSH1 0x24 PUSH0 REVERT INVALID LOG2 PUSH5 0x6970667358 0x22 SLT KECCAK256 0xC2 POP DUP12 PUSH1 0x23 0x2A PUSH27 0x3A8C2CF0BB93E88A0449A820493B6D0E501C8A9F69645D8876473 PUSH16 0x6C634300081C00330000000000000000 "
				},
				"gasEstimates": {
					"creation": {
						"codeDepositCost": "612400",
						"executionCost": "643",
						"totalCost": "613043"
					},
					"external": {
						"addTodo(string)": "infinite",
						"markTodo(uint16)": "infinite",
						"showTodos()": "infinite",
						"todoLists(uint256)": "infinite"
					}
				},
				"methodIdentifiers": {
					"addTodo(string)": "95ffebf5",
					"markTodo(uint16)": "ad0637e7",
					"showTodos()": "600060eb",
					"todoLists(uint256)": "c68543b5"
				}
			},
			"storageLayout": {
				"storage": [
					{
						"astId": 10,
						"contract": "contracts/TodoList.sol:TodoList",
						"label": "todoLists",
						"offset": 0,
						"slot": "0",
						"type": "t_array(t_struct(Todo)6_storage)dyn_storage"
					}
				],
				"types": {
					"t_array(t_struct(Todo)6_storage)dyn_storage": {
						"base": "t_struct(Todo)6_storage",
						"encoding": "dynamic_array",
						"label": "struct TodoList.Todo[]",
						"numberOfBytes": "32"
					},
					"t_bool": {
						"encoding": "inplace",
						"label": "bool",
						"numberOfBytes": "1"
					},
					"t_string_storage": {
						"encoding": "bytes",
						"label": "string",
						"numberOfBytes": "32"
					},
					"t_struct(Todo)6_storage": {
						"encoding": "inplace",
						"label": "struct TodoList.Todo",
						"members": [
							{
								"astId": 3,
								"contract": "contracts/TodoList.sol:TodoList",
								"label": "isCompleted",
								"offset": 0,
								"slot": "0",
								"type": "t_bool"
							},
							{
								"astId": 5,
								"contract": "contracts/TodoList.sol:TodoList",
								"label": "name",
								"offset": 0,
								"slot": "1",
								"type": "t_string_storage"
							}
						],
						"numberOfBytes": "64"
					}
				}
			},
			"userdoc": {
				"kind": "user",
				"methods": {},
				"version": 1
			}
		}
	}
}